:1000000027C100000C94CB190C94A0190C947519FD
:100010000C944A190C941F190C94F4180C94C918D8
:100020000C949E180C94461B0C94461B0C94461B77
:1000300040C100003EC100003CC100003AC10000C8
:1000400038C1000036C1000034C1000032C10000D8
:1000500030C100002EC100002CC100000C945418C7
:1000600028C100000C941C1B0C94F21A22C1000041
:1000700020C100001EC100001CC100001AC1000008
:1000800018C1000016C1000014C1000012C1000018
:100090000C94C81A0C949E1A0CC100000C94C21B3C
:1000A00008C1000006C1000004C1000002C1000038
:1000B00000C10000FEC00000FCC00000FAC000004B
:1000C000F8C00000F6C00000F4C000000C94741AE0
:1000D0000C944A1AEEC000000C94201A0C94F619E5
:1000E000E8C00000CDCCCC3D0AD7233C17B7D138AF
:1000F00077CC2B329595E6241FB14F0A0000803F44
:10010000CDCCCC3D6F12833A95BFD6337D1D902662
:10011000B3CE010C000020410000C84200401C4644
:1001200020BCBE4CCA1B0E5AAEC59D7400002100F7
:10013000240027002A002D003000330001010000B8
:10014000040107010A0100000A0B02090C0D0E0848
:100150000703040100000000000000000000000090
:10016000000000000000000000000000000000008F
:10017000000012111000000000000000000000004C
:10018000000000000000000000000000000020004F
:100190002300260029002C002F003200000100005F
:1001A00003010601090100002200250028002B00A0
:1001B0002E003100340002010000050108010B018E
:1001C00005050505070508080808020202020A0AD3
:1001D00008080404040401010101010101010303F1
:1001E000030303030303040707070C0C0C0C0C0C9C
:1001F0000C0C0202020206060606060606060B0B99
:100200000B0B0B0B0B0B01021020200808102040D9
:1002100010204080020102010804020101020408CA
:100220001020408080402010080402018004020158
:1002300080402010080402010804020101020408A1
:10024000102040800102040810204080E51CE825B1
:1002500011241FBECFEFD1E2DEBFCDBF00E00CBF47
:1002600014E0A0E0B2E0E4E6F8E500E00BBF02C075
:1002700007900D92AA39B107D9F72DE0AAE9B4E0A9
:1002800001C01D92AC37B207E1F711E0C7E2D1E03F
:1002900000E006C021970109802FFE010E9432294B
:1002A000C632D10780E00807A9F70E94BA1F0C9454
:1002B000212CA6CE089508950895089508950895CF
:1002C000089508950895089508950895282F30E019
:1002D000F901EA5BFE4F9491F901EA5FFD4F449109
:1002E00020543E4FF9012491222309F435C099236B
:1002F00011F191509231F8F4E92FF0E08827EC5792
:10030000FE4F8F4F0C943229B501B9019601AD0112
:10031000B1019B01BC01C201C601CC01D001D401D5
:10032000DA01DE019B01E201E801EC01809180002D
:100330008F7780938000E22FF0E0EE0FFF1FEA55E9
:10034000FE4FA591B4918FB7F894EC91611148C01C
:1003500040954E234C938FBF0895809180008F7DF0
:10036000E8CF80918000877FE4CF84B58F7784BD0C
:10037000E2CF84B58F7DFBCF8091B0008F778093E3
:10038000B000D9CF8091B0008F7DF9CF80919000DF
:100390008F7780939000CFCF809190008F7DF9CFA1
:1003A00080919000877FF5CF8091A0008F77809318
:1003B000A000C1CF8091A0008F7DF9CF8091A000D7
:1003C000877FF5CF809120018F7780932001B3CF75
:1003D000809120018F7DF9CF80912001877FF5CF1B
:1003E0004E2BB8CFCF93DF9390E0FC01EA5FFD4F37
:1003F000249180549E4FFC0184918823C9F090E0A1
:10040000880F991FFC01E45DFE4FA591B491FC019A
:10041000EA55FE4FC591D49161110DC09FB7F89474
:100420008C91209582238C938881282328839FBFD9
:10043000DF91CF910895623051F49FB7F8943C91C9
:10044000822F809583238C93E8812E2BEFCF8FB75B
:10045000F894EC912E2B2C938FBFEACF3FB7F894F2
:100460008091920790919307A0919407B09195077E
:1004700026B5A89B05C02F3F19F00196A11DB11DFF
:100480003FBFBA2FA92F982F8827BC01CD01620F3B
:10049000711D811D911D42E0660F771F881F991FF6
:1004A0004A95D1F708958F929F92AF92BF92CF92C3
:1004B000DF92EF92FF926B017C01D0DF4B015C0178
:1004C000C114D104E104F104B1F0C8DF681979095D
:1004D0008A099B09683E73408105910588F321E0F4
:1004E000C21AD108E108F10888EE880E83E0981E50
:1004F000A11CB11CE5CFFF90EF90DF90CF90BF9093
:10050000AF909F908F9008952FB7F89460918E07C9
:1005100070918F0780919007909191072FBF089558
:100520000895AF92BF92CF92DF92EF92FF920F9316
:100530001F93CF93DF936C017B018B01040F151F79
:10054000EB015E01AE18BF08C017D10759F06991E1
:10055000D601ED91FC910190F081E02DC601199535
:10056000892B79F7C501DF91CF911F910F91FF90F2
:10057000EF90DF90CF90BF90AF900895FC01A089DD
:10058000B1898C91A689B78982FD0FC09C91818D1C
:100590008F5F8F73228D821749F0A18DAE0FBF2F11
:1005A000B11D5D969C93818F08958C910895FC01F7
:1005B000538D448D252F30E0842F90E0821B930BC8
:1005C000541710F0CF96089501970895FC01918D6E
:1005D000828D981761F0A28DAE0FBF2FB11D5D9671
:1005E0008C91928D9F5F9F73928F90E008958FEF13
:1005F0009FEF0895FC01918D828D981731F0828DC7
:10060000E80FF11D858D90E008958FEF9FEF08951D
:10061000FC01918D228D892F90E0805C9F4F821B81
:1006200091098F739927089584E098E0F1DF21E024
:10063000892B09F420E0822F089581EA98E0E8DF11
:1006400021E0892B09F420E0822F08958EE399E0C0
:10065000DFDF21E0892B09F420E0822F08958BED64
:1006600099E0D6DF21E0892B09F420E0822F08955C
:10067000FC01A48DA80FB92FB11DA35ABF4F2C9117
:10068000848D90E001968F739927848FA689B7890E
:100690002C93A089B1898C91837080648C93938D05
:1006A000848D981306C00288F389E02D80818F7DA8
:1006B00080830895EF92FF920F931F93CF93DF9360
:1006C000EC0181E0888F9B8D8C8D98131AC0E8898E
:1006D000F989808185FF15C09FB7F894EE89FF895D
:1006E0006083E889F98980818370806480839FBFFB
:1006F00081E090E0DF91CF911F910F91FF90EF90FB
:100700000895F62E0B8D10E00F5F1F4F0F7311270A
:10071000E02E8C8D8E110BC00FB607FCFACFE88946
:10072000F989808185FFF5CFCE01A2DFF2CFEB8D75
:10073000EC0FFD2FF11DE35AFF4FF0829FB7F894A5
:100740000B8FEA89FB8980818062D0CFCF93DF93C2
:10075000EC01888D8823B1F0AA89BB89E889F989E1
:100760008C9185FD03C0808186FD0CC00FB607FC0F
:10077000F7CF8C9185FFF2CF808185FFEDCFCE0141
:1007800077DFEACFDF91CF91089580E090E0892B69
:1007900021F065DF81110E94000080E090E0892B4C
:1007A00021F054DF81110E94000080E090E0892B4D
:1007B00021F043DF81110E94000080E090E0892B4E
:1007C00021F032DF81110C9400000895FC0183892F
:1007D0008B3051F480E492E4AFE0B0E0FB0184A3FD
:1007E00095A3A6A3B7A3089580E894E8AEE1B0E08E
:1007F000F5CFCF92DF92EF92FF92CF93DF93DC01A0
:100800001796CC911797D0E06111DC2F18962C9198
:10081000189730E0220F331F24573E4F50E040E03E
:10082000F90185919491FC01F080BA0190E080E09B
:10083000EF2DEC23ED1310C04F5F5F4F1D96CD9051
:10084000DD90ED90FC9050976C157D058E059F0511
:1008500038F36FEF7FEFCB01DF91CF91FF90EF90F7
:10086000DF90CF9008958F929F92AF92BF92CF92D8
:10087000DF92EF92FF920F931F93CF93DF93CDB749
:10088000DEB7C054D1400FB6F894DEBF0FBECDBF67
:100890008C013ADEF801C184D284E384F4849B01A4
:1008A000AC012C193D094E095F0969017A0130ED4F
:1008B000C31637E0D306E104F104A8F48189C05CD3
:1008C000DE4F0FB6F894DEBF0FBECDBFDF91CF91E4
:1008D0001F910F91FF90EF90DF90CF90BF90AF905E
:1008E0009F908F9008956187728783879487148281
:1008F000138212821182108262E0858173DD61E0D1
:1009000070E080E090E0CFDD61E0F80185816ADD94
:1009100060E0F8018581DADCF8018681855182305A
:1009200018F58BE291E10197F1F762E0F80185811A
:1009300059DDF801828990E08230910538F0880F06
:10094000991F880F991F05970197F1F7F89460E0B8
:10095000C8014FDF6F3F7F4F8F4F9F4F59F4F80112
:10096000118A789480E0ABCF64E170E080E090E0A1
:100970009ADDDBCF61E0C8013CDF6F3F7F4F8F4FD7
:100980009F4F69F39E012F5F3F4F79015E013FEB5F
:10099000A31A3EEFB30A670160E0C8012ADFF6013F
:1009A000608371838283938361E0C80122DFF60153
:1009B0006483758386839783F8E0CF0ED11CCA14B5
:1009C000DB0451F7789430E020E0F70180809180DB
:1009D000A280B3804481558166817781FFEF8F16B5
:1009E0009F06AF06BF0631F04F3F8FEF58076807ED
:1009F000780719F4F801118AB5CFF90183E0F5956C
:100A0000E7958A95E1F7E00FF11F8081880F841642
:100A10009506A606B706F0F080832F5F3F4FF8E0FB
:100A2000EF0EF11C2832310581F6F8014481208156
:100A30008181280F3327331F8281280F311D838145
:100A4000820F932F911D99274817190699F681E077
:100A5000818B35CF8160E0CFCF93DF93009729F171
:100A6000EC01C05CDF4F888199810097F1F0DC01D7
:100A7000ED91FC910190F081E02D69EF199588814D
:100A80009981DC01ED91FC910190F081E02D62E013
:100A9000199588819981DC01ED91FC910190F0819B
:100AA000E02D65E0DF91CF911994DF91CF9108950A
:100AB000CF92DF92EF92FF920F931F93CF93DF932A
:100AC000009709F473C0FC01E058FF4FC080CC20B0
:100AD00009F46CC0EC01C05CDF4FA881B9811097AC
:100AE00009F464C0FC01EF57FF4FE080F180F7018B
:100AF00011810081ED91FC9111970190F081E02D21
:100B000060EFCD01199588819981DC01ED91FC910F
:100B10000190F081E02D69E7199588819981DC01C8
:100B2000ED91FC910190F081E02D602F1995888165
:100B30009981DC01ED91FC910190F081E02D612F14
:100B400019958701EC2DE250FF0B6F018881998187
:100B5000DC01ED91FC910190F081E02D98012E19BE
:100B60003F092C153D05C0F4D80112966C916F77A2
:100B7000199588819981F801628170E0660F672F6D
:100B8000661F770BDC01ED91FC910190F081E02D67
:100B900019950F5F1F4FDACF67EFDF91CF911F914C
:100BA0000F91FF90EF90DF90CF901994DF91CF914C
:100BB0001F910F91FF90EF90DF90CF9008952091BB
:100BC0005105211109C021E0209351053091230CDA
:100BD0002091240C3CBD2DBD60E0FC01848176CBCE
:100BE00061E0FC01848172DB8091510581111092DA
:100BF000510508958EBD00000DB407FEFDCF8EB5E2
:100C000008958FEFF7CF0F931F93CF93DF93EC01EE
:100C10007BDC8B01F6DF8F3F61F076DC601B710BB4
:100C20006C177D07B8F380E0DF91CF911F910F9192
:100C3000089581E0F9CFCF92DF92EF92FF920F9368
:100C40001F93CF93DF93EC01162F69017A018E81F8
:100C5000882379F08F8198859C012F5F3F4F3887DB
:100C60002F838230924010F4CCDFF4CFCE01B8DF76
:100C70001E82CE01A4DF8CE291E0C5DF812F80646B
:100C8000B9DF08E110E0D701C601002E04C0B69517
:100C9000A795979587950A94D2F7ACDF085011096C
:100CA000083F8FEF180779F78FEFA4DF10E0A9DF77
:100CB0008A8787FF04C01F3F11F01F5FF8CFDF91C5
:100CC000CF911F910F91FF90EF90DF90CF900895FB
:100CD000CF92DF92EF92FF920F93CF93DF93EC01CD
:100CE000690182E1411551056105710591F08B851E
:100CF000833039F089E0440F551F661F771F8A95AE
:100D0000D1F79A01AB0168E1CE0195DF882319F094
:100D100084E08D8326C08EEF6DDF76018EEFD81ACA
:100D2000F70181917F0166DFEC14FD04C9F78FEFB5
:100D300061DF8FEF5FDF65DF8A878F71853069F450
:100D4000011113C0CE014CDF81E0DF91CF910F91F3
:100D5000FF90EF90DF90CF90089581E18D83CE01D9
:100D60003FDFCE013DDF80E0F0CF88E592E04BDF52
:100D7000811102C085E1CDCF20E030E0A9016DE016
:100D8000CE0159DF882311F084E1C3CF3ADF81110E
:100D9000FBCFD8CF0F9340915305509154056091EC
:100DA000550570915605411551056105710581F094
:100DB000082F27E535E090E080E08ADF882349F0BE
:100DC0001092530510925405109255051092560535
:100DD00081E00F9108950F93CF93C82F8091520512
:100DE000811105C0C1E08C2FCF910F9108954091E2
:100DF00000025091010260910202709103020C2FD7
:100E000027E535E090E080E063DF811102C0C0E0BB
:100E1000EACFCC2339F381E0BDDF8823C1F3109200
:100E20005205E1CFAF92BF92CF92DF92EF92FF9245
:100E30001F93CF93DF936B017C01142F80910002ED
:100E400090910102A0910202B09103028C159D05C0
:100E5000AE05BF0509F4A3C081E0BDDF8823D1F151
:100E6000809106008823A1F08091000090910100FC
:100E7000A0910200B0910300C816D906EA06FB064D
:100E800039F48091070090910800892B09F449C03A
:100E9000C0920000D0920100E0920200F0920300A4
:100EA00080910B00A7019601833039F099E0220F61
:100EB000331F441F551F9A95D1F761E190E080E000
:100EC000BADE882389F083E08093050090E080E01B
:100ED00087DE80E0DF91CF911F91FF90EF90DF9050
:100EE000CF90BF90AF9008950FDBEB018ADE809327
:100EF0000A008F3F69F408DB6C1B7D0B6D3271407B
:100F0000A8F38FE08093050090E080E069DEDECFFB
:100F10008E3FB1F5109208001092070081E0809397
:100F20000600C7E5D5E087E5A82E87E0B82E69DE84
:100F30008993AC16BD06D9F78091070090910800FF
:100F40009E5F909308008093070020910900222360
:100F500019F081159240D8F0809106008823B9F0ED
:100F600080910700909108009C012F5F3F4F3093C4
:100F70000800209307008230924020F442DEF0CF38
:100F80008DE0C0CF90E080E02BDE10920600C09292
:100F90000002D0920102E0920202F092030240911C
:100FA0005205412B4093520581E094CF4F925F92BE
:100FB0006F927F928F929F92AF92BF92CF92DF9269
:100FC000EF92FF920F931F93CF93DF93EC01423088
:100FD00051056105710590F480E0DF91CF911F917B
:100FE0000F91FF90EF90DF90CF90BF90AF909F90C8
:100FF0008F907F906F905F904F90089589859A852C
:10100000AB85BC850196A11DB11D84179507A60768
:10101000B70710F3CB88DC88ED88FE888F89803194
:1010200009F042C0BB27A72F962F852F48015901F1
:101030002A013B01C80ED91EEA1EFB1E8091000248
:1010400090910102A0910202B0910302C816D90644
:10105000EA06FB0699F58F898031B9F5B301A20143
:10106000552766277727440F551F495A5A4FFA01CB
:1010700091828082809152058160809352058A8995
:10108000823080F08D819E81AF81B8858C0D9D1D51
:10109000AE1DBF1D8093530590935405A093550535
:1010A000B093560581E099CFDB01CA01E7E0B69520
:1010B000A79597958795EA95D1F7B8CF40E0C701F6
:1010C000B601B0DE8111C7CF87CFB301A2014F7740
:1010D000552766277727440F551F440F551F495A38
:1010E0005A4FFA0180829182A282B382C3CF8F923B
:1010F0009F92AF92BF92CF92DF92EF92FF920F93A7
:101100001F93CF93DF93FC0181859285A385B485DE
:101110000196A11DB11D84179507A607B70770F4A6
:1011200080E0DF91CF911F910F91FF90EF90DF90C2
:10113000CF90BF90AF909F908F90089583889488B0
:10114000A588B6888789803189F5BB27A72F962F78
:10115000852FE9016A017B018F01BC01CD01680D7A
:10116000791D8A1D9B1D8090000290900102A09025
:101170000202B090030286169706A806B90601F58A
:10118000F8018789803109F5DD24EE24FF24F6017A
:10119000EE0FFF1FE95AFA4F80819181B0E0A0E085
:1011A00088839983AA83BB8381E0BBCFDB01CA011B
:1011B000C7E0B695A79597958795CA95D1F7C9CFFA
:1011C00040E030DE8111DCCFABCFE894C7F8DD24FE
:1011D000EE24FF24F601EE0FFF1FEE0FFF1FE95A6A
:1011E000FA4F80819181A281B381BF70D9CF8F9254
:1011F0009F92AF92BF92CF92DF92EF92FF920F93A6
:101200001F93CF93DF93EC018D8181110EC080E09D
:10121000DF91CF911F910F91FF90EF90DF90CF90D2
:10122000BF90AF909F908F9008950B891C892D8956
:101230003E89041715072607370748F34A015B0163
:10124000823031F48A869B86AC86BD8681E0E0CF11
:1012500081149104A104B10449F41E821F821886EE
:1012600019861A861B861C861D86F0CF0A851B856B
:101270002C853D85EB8DFC8D858590E00996B90127
:10128000A8014150510961097109082E04C07695E1
:101290006795579547950A94D2F775016401E1E087
:1012A000CE1AD108E108F10804C0F694E794D79467
:1012B000C7948A95D2F7C416D506E606F70620F03D
:1012C000012B022B032B09F58F89988DA98DBA8DDF
:1012D0008E839F83A887B9878E010A5F1F4FC11431
:1012E000D104E104F10409F4ADCF4E815F8168853A
:1012F000798598018B8D9C8DFADE91E0C91AD10811
:10130000E108F1088111EBCF82CFC41AD50AE60AB1
:10131000F70AE2CF3F924F925F926F927F928F9245
:101320009F92AF92BF92CF92DF92EF92FF920F9374
:101330001F93CF93DF93CDB7DEB72C970FB6F894FA
:10134000DEBF0FBECDBF5C01DC015B968D909C9033
:101350005C9716964D905D906D907C901997411416
:1013600051046104710409F467C0BFEF4B1A5B0AB2
:101370006B0A7B0A312CF40181859285A385B485A3
:101380009C01AD012F5F3F4F4F4F5F4F29873A8739
:101390004B875C87730162011D821E821F82188643
:1013A000F40181859285A385B4852D813E814F818D
:1013B0005885281739074A075B0708F054C0898504
:1013C0009A85AB85BC858C159D05AE05BF0550F48F
:1013D00082E0C82ED12CE12CF12C92E0492E512C28
:1013E000612C712C9E012F5F3F4FB701A601C401F4
:1013F0007EDE8823C1F189819A81AB81BC81892BF2
:101400008A2B8B2B09F1260137019FEF491A590AC4
:10141000690A790A2D813E814F8158852F5F3F4FA0
:101420004F4F5F4F2D833E834F8358873FEFC31A43
:10143000D30AE30AF30AB4CFF401408051806280FA
:1014400073803324339497CFC414D504E604F7048F
:1014500009F70FEF1FEF2FEF3FE0B701A601C4011F
:10146000A5DD811119C080E02C960FB6F894DEBF7F
:101470000FBECDBFDF91CF911F910F91FF90EF90E5
:10148000DF90CF90BF90AF909F908F907F906F90A4
:101490005F904F903F900895D50116964D915D91C4
:1014A0006D917C911997411551056105710531F0D8
:1014B00097018601C4017ADD8823A9F2D501169629
:1014C000CD92DD92ED92FC921997332051F0D70125
:1014D000C6010196A11DB11DF40180839183A283F1
:1014E000B383F5018789908DA18DB28D892B8A2BCD
:1014F0008B2B39F48481C78AD08EE18EF28E80687E
:101500008483F50184818062848381E0ADCF1F9361
:10151000CF93DF93EC01162F8C8187FF29C06E8556
:101520007F858889998941E07DDC882359F1EA89A2
:1015300080E2E89FF0011124E95AFA4F309711F147
:101540008D81823040F48B899C89AD89BE89848FDE
:10155000958FA68FB78F8F89988D938F828F8F8964
:10156000988DA98DBA8DB58BA48B8C818F778C8348
:10157000111103C08C818F7E8C83812FDF91CF91DD
:101580001F9129CC80E0DF91CF911F9108951F9387
:10159000CF93DF93EC018D81813031F090E080E0DA
:1015A000DF91CF911F9108958C8181FFF7CF82FD4C
:1015B00017C090E080E003DB24DB182F90E080E090
:1015C0000FDB1F3F59F78C8185FF1CC08D8188235D
:1015D00019F060E0CE019BDF8C818F7D8C83DECFA4
:1015E0004B895C896D897E898A859B85AC85BD85A3
:1015F00084179507A607B707E1F2CE01F8DD811140
:10160000D8CFCCCF409153055091540560915505EA
:1016100070915605452B462B472B19F080E0BADB1D
:10162000BDCF80618C832A853B85317080E092E05C
:10163000821B930BB5CF9F92AF92BF92CF92DF9256
:10164000EF92FF920F931F93CF93DF9300D01F92DF
:101650001F92CDB7DEB78C016D83DC0115968C919E
:101660001597813009F0B7C014968C9181FFB3C0F3
:1016700082FD9EC0D8015B96ED91FC915C971A9615
:10168000AD90BD90CD90DC901D9794809A94B6015A
:10169000A50189E076956795579547958A95D1F785
:1016A0009422B1E0BB22992009F49DC0D8015B9639
:1016B000ED91FC915C971696CD90DD90ED90FC90AD
:1016C0001997B2E0CB1AD108E108F108858504C06A
:1016D000CC0CDD1CEE1CFF1C8A95D2F74685578585
:1016E00060897189C40ED51EE61EF71EC90CD11C77
:1016F000E11CF11CA114B10409F004C1F8014285F8
:1017000053856485758583899489A589B689481729
:1017100059076A077B0708F4F5C081E05CDB882382
:1017200009F459C0C0920002D0920102E092020274
:10173000F092030280915205816080935205F50179
:10174000E95AFA4F8D818083F80182859385A485BB
:10175000B5850196A11DB11D82879387A487B587A2
:101760004389548965897689481759076A077B0731
:1017700038F42481838B948BA58BB68B20682483CB
:10178000D80114968C9183FD9BC081E090E00F906E
:101790000F900F900F900F90DF91CF911F910F91AD
:1017A000FF90EF90DF90CF90BF90AF909F90089503
:1017B000F801438954896589768982859385A48552
:1017C000B585481759076A077B0709F453CFC80145
:1017D0000EDD81114FCF81E090E0D80113969C93EC
:1017E0008E93129747C0D80116964D915D916D91D9
:1017F0007C911997A114B10409F06DC041155105F0
:101800006105710581F557968D919D910D90BC9163
:10181000A02D0097A105B10509F04CC0C8017ADDE3
:101820008823C9F2D8015B96ED91FC915C971696DE
:10183000CD90DD90ED90FC901997B2E0CB1AD108D5
:10184000E108F108858504C0CC0CDD1CEE1CFF1CF2
:101850008A95D2F74685578560897189C40ED51E51
:10186000E61EF71E4BCF9E012F5F3F4FCF013FDC9F
:10187000811103C090E080E08ACF89819A81AB8199
:10188000BC81F801238D348DF901278948EF5FEF82
:1018900060E070E0203121F048EF5FEF6FEF7FE014
:1018A00084179507A607B70728F0C80133DD811113
:1018B000FDCE91CFF80186839783A087B187F6CEBE
:1018C000F8018581882309F486CF61E0C8011FDE15
:1018D00081115BCF80CF6A017B01B2E0CB1AD108C6
:1018E000E108F108858504C0CC0CDD1CEE1CFF1C52
:1018F0008A95D2F74685578560897189C40ED51EB1
:10190000E61EF71E41E0C701B6018CDA811117CF40
:1019100062CF2091590730915A072817390771F47F
:101920009091570780915807981741F0E091570719
:10193000F0E0EF5EFA4F808190E008958FEF9FEF27
:1019400008950895EF92FF920F931F93CF93DF9323
:10195000DC015C96ED90FC905D97E114F10479F464
:1019600081E090E013969C938E93129790E080E034
:10197000DF91CF911F910F91FF90EF9008955196B5
:10198000ED91FC91529750968C915097982F90958D
:101990000FB75E962C915E97122F127021FD609505
:1019A000F8942081112319F1282B2083E701219736
:1019B000F1F728E0462F50E0308160FF1AC0382B45
:1019C0003083E7012197F1F7BA01759567952150AA
:1019D00089F7112381F08081892380830FBF5C9672
:1019E0008D919C910197F1F781E090E0C1CF29237F
:1019F000DCCF3923E5CF9081892BEFCF2091590798
:101A000030915A072817390761F4809158072091BF
:101A1000570790E0805C9F4F821B91098F73992735
:101A2000089590E080E008952091590730915A0779
:101A300028173907B9F490915707809158079817DC
:101A400089F0E0915707F0E0EF5EFA4F8081209136
:101A5000570730E02F5F3F4F2F73332720935707EF
:101A600090E008958FEF9FEF0895E0912C0C809106
:101A70002B0CE81730F4F0E0E252F84F808190E050
:101A800008958FEF9FEF089590912C0C80912B0C6F
:101A90002FEF3FEF981748F4E92FF0E0E252F84FAC
:101AA000208130E09F5F90932C0CC90108958091B4
:101AB0002B0C90912C0C891B990B089590E080E0E1
:101AC00008952091EE04260F3327331F213231056C
:101AD000ECF42091FE07FC0190E080E0243069F0F6
:101AE00082E00895A091EE042191AC0142535B4F36
:101AF000A40FB52FB11D2C930196861798F38091F2
:101B0000EE04680F6093EE0480E0089581E008958C
:101B1000CF92DF92EF92FF920F931F93CF93DF93B9
:101B20007C01CB018A0120919607222389F0EB01E9
:101B30006B01C40ED51ECC15DD0561F06991D7018E
:101B4000ED91FC910190F081E02DC7011995F3CF43
:101B5000642FB7DFC801DF91CF911F910F91FF90E4
:101B6000EF90DF90CF900895CF93DF931F92CDB782
:101B7000DEB76983209196072223F9F02091290C82
:101B8000203258F021E030E0FC013383228390E0E2
:101B900080E00F90DF91CF91089580912A0CE82F7B
:101BA000F0E0E956F84F998190838F5F80932A0C7B
:101BB0008093290C81E090E0ECCF61E0CE010196AA
:101BC00080DFF8CF1092FE0781E08093DD0710924E
:101BD000D80761E084E10E94660161E085E10E942E
:101BE0006601E9EBF0E080818E7F808380818D7FCC
:101BF000808388E48093B80085E48093BC000895D6
:101C0000CF93DF9391E09093CD048823B1F0C091FE
:101C1000B800D091BA008091BC008A7B8093BC0050
:101C200060E084E10E94660160E085E10E94660157
:101C3000C9DFD093BA00C093B800DF91CF91089567
:101C4000CF92DF92EF92FF920F931F93CF93DF9388
:101C5000D82FC62F613208F097C00E942E026B0168
:101C60007C018091FE0781116BC081E08093FE07AB
:101C70008093DD079FEF9093DC071092DB079C0FAA
:101C80009093DA078093D9078091D907DD0FD82B7D
:101C9000D093D9078091D807813009F077C010928E
:101CA000D8070E942E026B017C018091D907809396
:101CB000BB008091000890910108A0910208B091AA
:101CC0000308892B8A2B8B2BA1F00E942E020091F6
:101CD00000081091010820910208309103086C1946
:101CE0007D098E099F09061717072807390708F489
:101CF00048C08091BC0083FDD8CF85EC8093BC00A8
:101D00000E942E026B017C018091FE07813009F454
:101D10003FC08091DB078C1710F4C091DB07E8EB24
:101D2000F7E0AEEDB7E080E08C1354C08C2FDF916C
:101D3000CF911F910F91FF90EF90DF90CF9008957A
:101D40008091000890910108A0910208B0910308C9
:101D5000892B8A2B8B2B09F484CF0E942E020091B1
:101D600000081091010820910208309103086C19B5
:101D70007D098E099F09061717072807390708F0FC
:101D800070CF8091FF073CDFC0E0D0CF85EEB6CFAB
:101D90008091000890910108A0910208B091030879
:101DA000892B8A2B8B2B09F4AFCF0E942E02009136
:101DB00000081091010820910208309103086C1965
:101DC0007D098E099F09061717072807390708F0AC
:101DD0009BCFD7CF91919D938F5FA6CFCF92DF926C
:101DE000EF92FF920F931F93CF93DF93D091290C23
:101DF00081E0D13208F09BC0C091B7070E942E024B
:101E00006B017C018091FE0781116CC082E08093A0
:101E1000FE0781E08093DD078FEF8093DC0710924F
:101E2000DB07D093DA07A7E9B7E0E8EBF7E080E05B
:101E3000D8138CC01092D9078091D907CC0FC82B2A
:101E4000C093D9078091D807813009F083C01092E0
:101E5000D8070E942E026B017C018091D9078093E4
:101E6000BB008091000890910108A0910208B091F8
:101E70000308892B8A2B8B2BA1F00E942E02009144
:101E800000081091010820910208309103086C1994
:101E90007D098E099F09061717072807390708F4D7
:101EA00042C08091BC0083FDD8CF85EC8093BC00FC
:101EB0000E942E026B017C018091FE07823009F4A2
:101EC0004BC08091DC078F3F09F468C08091DC072C
:101ED000803209F465C08091DC07803309F462C068
:101EE00084E025C08091000890910108A09102082B
:101EF000B0910308892B8A2B8B2B09F483CF0E9486
:101F00002E020091000810910108209102083091E2
:101F100003086C197D098E099F0906171707280702
:101F2000390708F06FCF8091FF076ADE85E01092D5
:101F30002A0C1092290C10929607DF91CF911F91D5
:101F40000F91FF90EF90DF90CF9008959D91919326
:101F50008F5F6ECF85EEAACF809100089091010827
:101F6000A0910208B0910308892B8A2B8B2B09F4CE
:101F7000A3CF0E942E020091000810910108209129
:101F80000208309103086C197D098E099F09061714
:101F900017072807390708F08FCFC5CF80E0C7CFD4
:101FA00082E0C5CF83E0C3CFFB01309729F0948155
:101FB000907896609483808308950895FC01A281AF
:101FC000B3818081918130E020E0A817B90738F40F
:101FD000CD010196938382836C9321E030E084816C
:101FE0009581820F931F958384830895CF93DF9308
:101FF000FC0182819381EB01460F571FA281B381BF
:1020000020813181A217B30758F4C417D50741F0D6
:102010002991BD016F5F7F4F738362832C93EECF55
:10202000A81BB90B84819581A80FB91FB583A48320
:10203000DF91CF9108958F929F92AF92BF92CF92EE
:10204000DF92EF92FF920F931F93CF93DF93CDB761
:10205000DEB766970FB6F894DEBF0FBECDBF6C013A
:102060008E01095E1F4F78018AE0882E912CA12CE9
:10207000B12CCB01BA01A50194010E94F428942F40
:10208000852F605DF80162938F01A901692F782F78
:10209000411551056105710561F7A7014E1B5F0BE5
:1020A000BF01C601A3DF66960FB6F894DEBF0FBE70
:1020B000CDBFDF91CF911F910F91FF90EF90DF90F7
:1020C000CF90BF90AF909F908F900895FC01258195
:1020D000222339F0F8E02F0290011124820F931F80
:1020E000089590E080E008950895CF9380915B0C6F
:1020F00091E0909396078093B70710922A0C109264
:10210000290C65E08DE29CE02FDD68DE64E08091C3
:102110005B0C96DD10922C0C80932B0C8DE29CE0D6
:10212000B3DC982F92959370CAE08F709C9F800DBE
:10213000112480933C0C8DE29CE0A6DC8770809398
:102140003D0C8DE29CE0A0DC982F991F9927991FE8
:102150009093460C84FB992790F98F709C9F800D7B
:10216000112480933E0C8DE29CE08EDC982F92959A
:102170009F708F709C9F800D112480933F0CCF9196
:1021800008951F93CF93DF93C9E3DCE08AA191E028
:10219000909396078093B70710922A0C1092290CFF
:1021A00060E08DE29CE0E0DC19DE65E08AA148DDBC
:1021B00010922C0C80932B0C8DE29CE065DC8B87BD
:1021C0008DE29CE061DC8C878DE29CE05DDC982FE9
:1021D000929597701AE08F70919F800D11248A83D9
:1021E0008DE29CE051DC982F929597708F70919FB3
:1021F000800D112489838DE29CE046DC982F929516
:1022000093708F70919F800D11248883DF91CF91FF
:102210001F910895EF92FF920F931F93CF93DF9337
:10222000FC018481982F9F7739F4807880628483C1
:102230001182108213821282848185FD09C080E0A0
:1022400090E0DF91CF911F910F91FF90EF90089553
:1022500061157105A1F38B017F01C081D1812097A8
:1022600081F16E817F81C8010E943A29892B39F161
:10227000CE012CDFEC01F3CF3897F093810CE09383
:10228000800C3097E1F2E701AA81BB81109791F0B1
:10229000CF018A1B9B0B23E0959587952A95E1F743
:1022A00015968C93FB83EA83158214821783068329
:1022B000CF01C7CFF983E883FB83EA83F5CFCE0153
:1022C000C0CFE091800CF091810C80917E0C9091B8
:1022D0007F0C0896E817F90778F681E08093840C64
:1022E000AECF009709F096CF90E080E00895FB0113
:1022F00001900020E9F73197AF01461B570BDC0135
:10230000ED91FC910280F381E02D19948F929F92C0
:10231000AF92BF92EF92FF920F931F93CF93DF93F1
:10232000CDB7DEB7A1970FB6F894DEBF0FBECDBF15
:102330007C01FA01CB0119A2223008F42AE08E01B7
:102340000F5D1F4F822E912CB12CA12CBF01A50136
:1023500094010E94F428F901CA016A3004F5605D15
:10236000D8016E938D01232B242B252B79F790E038
:1023700080E0109719F0BD01C701B9DFA1960FB633
:10238000F894DEBF0FBECDBFDF91CF911F910F91AB
:10239000FF90EF90BF90AF909F908F900895695CF1
:1023A000DFCF8F929F92AF92BF92CF92DF92EF9248
:1023B000FF920F931F93CF93DF937C01EB016C018E
:1023C00082E0C80ED11C4701E5E08E0E911C10E0A2
:1023D00000E0F60141916F0150E070E060E02AE01A
:1023E000CE0194DF5C01E881F9810190F081E02D5C
:1023F0006EE2CE0119958A0D9B1D080F191FC81496
:10240000D90439F7F701458150E070E060E02AE037
:10241000CE017CDF800F911FDF91CF911F910F9133
:10242000FF90EF90DF90CF90BF90AF909F908F90F4
:102430000895FB0101900020E9F73197AF01461B99
:10244000570BD4CD1F93CF93DF93EAE9F2E01281CB
:10245000112369F0329621816213F9CFEC016CE50A
:10246000ADDD612FCE01DF91CF911F91A7CD61111D
:10247000FACF6BEA72E0DF91CF911F91DACF2F9202
:102480003F924F925F926F927F928F929F92AF9204
:10249000BF92CF92DF92EF92FF920F931F93CF9351
:1024A000DF93CDB7DEB76C970FB6F894DEBF0FBEE3
:1024B000CDBF8C011B01DC0114968C9114978F7792
:1024C000863009F479C260F5823098F11296ED9069
:1024D000FC901397CC901196DC90843008F041C2A8
:1024E000A701B601C10182DDF101848195816C965D
:1024F0000FB6F894DEBF0FBECDBFDF91CF911F9115
:102500000F91FF90EF90DF90CF90BF90AF909F9092
:102510008F907F906F905F904F903F902F90089595
:102520008C3041F158F4883009F441C28A3009F402
:1025300029C262EB72E0C1017CDFDBC1803209F4A9
:10254000E1C18034B1F76BE5C10138DDF8010081EC
:1025500011810115110509F4D1C1B101C8018FDF45
:10256000C801B4DD8C01892B09F4C8C16CE2C1013A
:1025700025DDEFCFF801C080D180E280F380A70194
:102580009601C701B6010E9429278111D2CF20E010
:1025900030E0A901C701B6010E942927882379F0FC
:1025A000A7019601C701B6010E9443289B01AC0117
:1025B000C701B6010E942927882309F4BACF20E079
:1025C00030E0A901C701B6010E94292787FF07C093
:1025D0006DE2C101F3DCF7FAF094F7F8F09420E82B
:1025E00036E948E15BE4C701B6010E94D82887FDBF
:1025F00081C074E1A72EB12C00E210E0188E1F8A72
:10260000F501EC5EFE4F2591359145915491C7013E
:10261000B6010E94D82887FD13C0F501EC51FF4F89
:102620002591359145915491C701B6010E948E279D
:102630006B017C012F89388D200F311F388F2F8B34
:102640001595079534E0A31AB1088CEFA8168FEF03
:10265000B806B1F655245A9420E030E0A901C7012C
:10266000B6010E94D82818160CF04BC02CEA35ECA5
:1026700047E257E3C701B6010E94292718160CF458
:1026800040C0A52DB4E0AB02C0011124B12CA12C97
:10269000FC01E450FF4F3F019C012C5E3E4F49017D
:1026A0003FEF531671F1F301EA0DFB1D25913591B2
:1026B00045915491C701B6010E94292787FF13C095
:1026C000F401EA0DFB1D2591359145915491C70107
:1026D000B6010E948E276B017C018F89988D801B2B
:1026E000910B988F8F8B159507955A9494E0A91AA2
:1026F000B108D6CF00E210E055E0552E188E1F8AA3
:10270000ABCFC701B6010E94AC284B015C012B0185
:102710003C0106E080E492E4AFE0B0E0898F9A8F5C
:10272000AB8FBC8F102F01509AE049165104610401
:102730007104C8F0698D7A8D8B8D9C8D2AE030E014
:1027400040E050E00E94F428298F3A8F4B8F5C8F35
:10275000C301B2012AE030E040E050E00E94F428DA
:1027600029013A01DFCFC501B4010E942D279B0149
:10277000AC01C701B6010E9442286B017C01698D42
:102780007A8D8B8D9C8D0E942D279B01AC01C701FA
:10279000B6010E948E272B013C010E94AC286B01E0
:1027A0007C010E942D279B01AC01C301B2010E9454
:1027B00042289B01AC010E9443280E94AC28C60E0F
:1027C000D71EE81EF91E898D9A8DAB8DBC8DC8165B
:1027D000D906EA06FB06D8F09FEF891A990AA90ADA
:1027E000B90AAF89B88DAB2B39F1BAE08B169104D9
:1027F000A104B10408F1EF89F88D3196F88FEF8BC1
:10280000C12CD12C7601812C912C540183942AE087
:10281000422E512C612C712CC701B601A3019201EB
:102820000E94F428672B682B692B51F4111644F48D
:1028300069017A011150F0CFC12CD12C7601E7CF7C
:10284000B501A401C101F7DB112369F14E01F1E1EA
:102850008F0E911C012F54019AE0492E512C612CAE
:10286000712C015068F0C701B601A30192010E94CA
:10287000F428605DD4016E934D0169017A01F1CFB6
:10288000812F90E0BC0160957095F501E81BF90B74
:1028900031978EE2808344275527461B570B6A0DDC
:1028A0007B1DC101A3DBEF89F88DEF2B11F165E6EC
:1028B000C10184DB0F89188D17FF06C06DE2C101CD
:1028C0007DDB119501951109FE0177969F018AE044
:1028D000E82EF12CC801B7010E94E028805D8293A8
:1028E0008B01672BB9F7A9014E1B5F0BBF01C1011B
:1028F0007DDBD10114968D919C91F9CD6DE5C101DF
:102900005DDBF7CF6BE7C10159DBF8010081118175
:102910000115110521F1D8011696CC90169717963E
:10292000DC9062E2C1014ADB7601F70161917F012F
:10293000662319F0C10186DDF8CF62E2C1013EDBFA
:102940006AE3C1013BDBB101C80199DDC801BEDB0F
:102950008C01892B21F06CE2C10130DBD9CF6DE70E
:10296000CECF62E2C1012ADB8601E00EF11EE01645
:10297000F10631F0F80161918F01C10163DDF7CFFC
:1029800062E2BDCFCD90DD90ED90FC90B701A60145
:10299000F7FE0AC06DE2C10111DB44275527BA01D9
:1029A0004C195D096E097F09C10145DB9DCD4D9133
:1029B0005D916D917C91F8CF8C9167EB72E0811104
:1029C00002C06CEB72E0C10134DD8ECDFC01A08150
:1029D000B181109749F0FD0101900020E9F731978E
:1029E000CF018A1B9B0B089590E080E008956F92C1
:1029F0007F928F929F92AF92BF92CF92DF92EF928F
:102A0000FF920F931F93CF93DF9300D000D0CDB7E9
:102A1000DEB76A014115510509F461C00097D1F490
:102A2000FA0184818078848381E026960FB6F89439
:102A3000DEBF0FBECDBFDF91CF911F910F91FF90F1
:102A4000EF90DF90CF90BF90AF909F908F907F904E
:102A50006F9008958C019E838D839C838B83CE0120
:102A60000396B4DF4C01A0907C0CB0907D0CE090FC
:102A70007E0CF0907F0C3801680E791EF501E80D90
:102A8000F91DEE15FF0568F1CE0103969FDF9C014D
:102A90002F5F3F4F2E0D3F1D4091800C5091810CB8
:102AA0004217530708F03DC081E08093840CF12C5D
:102AB000E12CCE0105968ADFAC0130E020E0E11484
:102AC000F10411F025E631E0F60194819078232B92
:102AD00009F03FC0948381E0EF2809F0A6CF80E0A1
:102AE000A4CF8081811111C01A830983CE01019680
:102AF0006DDF8816990649F4D501F8016E167F0638
:102B000051F09D9181919817C9F3F50181915F0171
:102B10008111FBCFB3CFA114B10409F4B5CF750176
:102B2000C8CF30937F0C20937E0CE114F10409F49C
:102B3000C0CFF801D701A801480F591F4E175F07F2
:102B400019F021912D93FACF8E0D9F1DFC0110825B
:102B5000B0CF95609483F182E08253834283BBCFF0
:102B6000CF92DF92EF92FF920F931F93CF93DF9359
:102B70008C01EB01FB01349680E2DF011D928A9506
:102B8000E9F784E290E0A0E0B0E088839983AA832B
:102B9000BB83F80185819681A781B0858C839D8355
:102BA000AE83BF838CE090E0A0E0B0E08887998797
:102BB000AA87BB870E948402688B798B8A8B9B8B48
:102BC000D80113960D911C91C8010E9433048823EB
:102BD00049F0F80186818B3028F08D3040F0855126
:102BE000823070F160E070E080EC9FE71BC0618193
:102BF00070E090E080E00E942F272DEC3CEC4CEC44
:102C00005DE30E948E276B017C01F801608170E01A
:102C100090E080E00E942F279B01AC01C701B60124
:102C20000E9443286C8B7D8B8E8B9F8B81E0DF9184
:102C3000CF911F910F91FF90EF90DF90CF9008956B
:102C40006081718176276727762790E080E00E9477
:102C50002D272DEC3CEC4CEC5DE30E948E27E2CF5F
:102C60008F929F92AF92BF92EF92FF921F93CF935A
:102C7000DF937C01EB01FB01349680E2DF011D92C2
:102C80008A95E9F784E290E0A0E0B0E08883998338
:102C9000AA83BB83F70185819681A781B0858C8348
:102CA0009D83AE83BF838DE090E0A0E0B0E0888795
:102CB0009987AA87BB870E948402688B798B8A8B4D
:102CC0009B8BD7011396ED90FC90C7010E943304B3
:102CD000882341F0F70186818C3009F455C038F41F
:102CE0008B30E1F060E070E080EC9FE73EC0855102
:102CF0008230C0F71281612F70E0762F6627662739
:102D00007F778381682B90E080E00E942D272DEC57
:102D10003CEC4CEC5DE30E948E2751C0628170E078
:102D200090E080E00E942D274B015C01F7011381A8
:102D300017FF0AC0AC019B0160E070E080E89FEBE8
:102D40000E9442284B015C011F70612F70E090E0EF
:102D500080E00E942F272DEC3CEC4CEC5DE30E94C0
:102D60008E27A50194010E9443286C8B7D8B8E8B4E
:102D70009F8B81E0DF91CF911F91FF90EF90BF90EB
:102D8000AF909F908F9008951281612F70E090E036
:102D900080E00E942D274B015C01F70163816F7079
:102DA00070E090E080E00E942F272DEC3CEC4CEC92
:102DB0005DE30E948E27A50194010E94432817FF1E
:102DC000D4CF9058D2CFCF93DF93EB01FC0183890E
:102DD0004BE050E068EC72E08C30C1F058F44BE00E
:102DE00050E062EC72E08B3089F04BE050E06AED2D
:102DF00072E00CC04BE050E06EEC72E0853131F0D7
:102E00004BE050E064ED72E0863179F7CE010E942C
:102E10004A291B86DF91CF9108950F931F93CF937B
:102E2000DF938C01EB0188E2DB011D928A95E9F7C3
:102E3000F80183819481C7DF81E090E0A0E0B0E0F9
:102E40008C879D87AE87BF87F80185819681A78192
:102E5000B085888B998BAA8BBB8B8CE090E0A0E02F
:102E6000B0E08C8B9D8BAE8BBF8BBE018381948138
:102E70000E94E603D8011396ED91FC9183898C3072
:102E800009F441C078F48B3009F1188E198E1A8E2E
:102E90001B8E1C8E1D8E1E8E1F8E18A219A21AA2AA
:102EA0001BA22CC08551823080F780E090E0A8EC16
:102EB000B2E4888F998FAA8FBB8F1C8E1D8E1E8EB9
:102EC0001F8E8DEC9CECACECBDE314C080E090E078
:102ED000A0EAB2E4888F998FAA8FBB8F80E090E040
:102EE000A0EAB1E48C8F9D8FAE8FBF8F80E090E021
:102EF000A0EAB0E488A399A3AAA3BBA3DF91CF91D2
:102F00001F910F91089580E090E0AEEBB2E4E2CF24
:102F10000F931F93CF93DF938C01EB0188E2DB01CA
:102F20001D928A95E9F7F801838194814CDF81E055
:102F300090E0A0E0B0E08C879D87AE87BF87F80166
:102F400085819681A781B085888B998BAA8BBB8B55
:102F50008DE090E0A0E0B0E08C8B9D8BAE8BBF8BC2
:102F6000BE01838194810E94E603D8011396ED91FE
:102F7000FC9183898C3091F178F48B30B1F0188E0C
:102F8000198E1A8E1B8E1C8E1D8E1E8E1F8E18A2E1
:102F900019A21AA21BA21DC08531A9F1863179F7A9
:102FA00080E090E0AAEFB2E432C080E090E0A8E4D4
:102FB000B2E4888F998FAA8FBB8F1C8E1D8E1E8EB8
:102FC0001F8E80E090E0A0E0B0E488A399A3AAA3BC
:102FD000BBA3DF91CF911F910F91089580E090E006
:102FE000A0E7B2E4888F998FAA8FBB8F80E090E032
:102FF000A0EAB1EC8C8F9D8FAE8FBF8F80E090E008
:10300000A0E0BFE3E2CF80E090E0A0EAB2E4888FE6
:10301000998FAA8FBB8F80E090E0A0E2B2EC8C8FFA
:103020009D8FAE8FBF8F8DEC9CECACECBDE3CDCF14
:1030300085ED8093BC008091000890910108A091DB
:103040000208B09103080796A11DB11D23E0B695B3
:10305000A795979587952A95D1F72091BC0024FDD7
:1030600003C01092FE070895409100085091010896
:103070006091020870910308452B462B472B69F39A
:103080000097A105B10541F02AE22A95F1F700C0A9
:103090000197A109B109E1CF8091FF070C94000EBF
:1030A0000C94A0260C94A0261F920F920FB60F929C
:1030B00011242F933F938F939F93AF93BF9380914E
:1030C0008E0790918F07A0919007B0919107309152
:1030D0008D0723E0230F2D3758F50196A11DB11D53
:1030E00020938D0780938E0790938F07A09390076E
:1030F000B09391078091920790919307A0919407C4
:10310000B09195070196A11DB11D809392079093F0
:103110009307A0939407B0939507BF91AF919F91A8
:103120008F913F912F910F900FBE0F901F90189588
:1031300026E8230F0296A11DB11DD2CF1F920F9238
:103140000FB60F9211240BB60F922F933F934F930C
:103150005F936F937F938F939F93AF93BF93EF93FF
:10316000FF93E0911202F09113021995FF91EF91F4
:10317000BF91AF919F918F917F916F915F914F918F
:103180003F912F910F900BBE0F900FBE0F901F908D
:1031900018951F920F920FB60F9211240BB60F9233
:1031A0002F933F934F935F936F937F938F939F934F
:1031B000AF93BF93EF93FF93E0911002F091110250
:1031C0001995FF91EF91BF91AF919F918F917F9151
:1031D0006F915F914F913F912F910F900BBE0F9088
:1031E0000FBE0F901F9018951F920F920FB60F925F
:1031F00011240BB60F922F933F934F935F936F93CE
:103200007F938F939F93AF93BF93EF93FF93E0913F
:103210000602F09107021995FF91EF91BF91AF91CE
:103220009F918F917F916F915F914F913F912F91DE
:103230000F900BBE0F900FBE0F901F9018951F920E
:103240000F920FB60F9211240BB60F922F933F934C
:103250004F935F936F937F938F939F93AF93BF939E
:10326000EF93FF93E0910402F09105021995FF910D
:10327000EF91BF91AF919F918F917F916F915F91EE
:103280004F913F912F910F900BBE0F900FBE0F905B
:103290001F9018951F920F920FB60F9211240BB624
:1032A0000F922F933F934F935F936F937F938F93DF
:1032B0009F93AF93BF93EF93FF93E0910E02F09132
:1032C0000F021995FF91EF91BF91AF919F918F914F
:1032D0007F916F915F914F913F912F910F900BBE16
:1032E0000F900FBE0F901F9018951F920F920FB660
:1032F0000F9211240BB60F922F933F934F935F932E
:103300006F937F938F939F93AF93BF93EF93FF93AD
:10331000E0910C02F0910D021995FF91EF91BF9190
:10332000AF919F918F917F916F915F914F913F915D
:103330002F910F900BBE0F900FBE0F901F901895FE
:103340001F920F920FB60F9211240BB60F922F936C
:103350003F934F935F936F937F938F939F93AF931D
:10336000BF93EF93FF93E0910A02F0910B0219953E
:10337000FF91EF91BF91AF919F918F917F916F914D
:103380005F914F913F912F910F900BBE0F900FBE09
:103390000F901F9018951F920F920FB60F92112445
:1033A0000BB60F922F933F934F935F936F937F933F
:1033B0008F939F93AF93BF93EF93FF93E091080296
:1033C000F09109021995FF91EF91BF91AF919F91F3
:1033D0008F917F916F915F914F913F912F910F90BE
:1033E0000BBE0F900FBE0F901F9018951F920F925B
:1033F0000FB60F9211240BB60F922F933F934F935A
:103400005F936F937F938F939F93AF93BF93EF934C
:10341000FF9384E098E00E943803FF91EF91BF9101
:10342000AF919F918F917F916F915F914F913F915C
:103430002F910F900BBE0F900FBE0F901F901895FD
:103440001F920F920FB60F9211240BB60F922F936B
:103450003F934F935F936F937F938F939F93AF931C
:10346000BF93EF93FF9384E098E00E94BE02FF9128
:10347000EF91BF91AF919F918F917F916F915F91EC
:103480004F913F912F910F900BBE0F900FBE0F9059
:103490001F9018951F920F920FB60F9211240BB622
:1034A0000F922F933F934F935F936F937F938F93DD
:1034B0009F93AF93BF93EF93FF9381EA98E00E94AD
:1034C0003803FF91EF91BF91AF919F918F917F91C1
:1034D0006F915F914F913F912F910F900BBE0F9085
:1034E0000FBE0F901F9018951F920F920FB60F925C
:1034F00011240BB60F922F933F934F935F936F93CB
:103500007F938F939F93AF93BF93EF93FF9381EA42
:1035100098E00E94BE02FF91EF91BF91AF919F9101
:103520008F917F916F915F914F913F912F910F906C
:103530000BBE0F900FBE0F901F9018951F920F9209
:103540000FB60F9211240BB60F922F933F934F9308
:103550005F936F937F938F939F93AF93BF93EF93FB
:10356000FF938EE399E00E943803FF91EF91BF91A2
:10357000AF919F918F917F916F915F914F913F910B
:103580002F910F900BBE0F900FBE0F901F901895AC
:103590001F920F920FB60F9211240BB60F922F931A
:1035A0003F934F935F936F937F938F939F93AF93CB
:1035B000BF93EF93FF938EE399E00E94BE02FF91C9
:1035C000EF91BF91AF919F918F917F916F915F919B
:1035D0004F913F912F910F900BBE0F900FBE0F9008
:1035E0001F9018951F920F920FB60F9211240BB6D1
:1035F0000F922F933F934F935F936F937F938F938C
:103600009F93AF93BF93EF93FF938BED99E00E944D
:103610003803FF91EF91BF91AF919F918F917F916F
:103620006F915F914F913F912F910F900BBE0F9033
:103630000FBE0F901F9018951F920F920FB60F920A
:1036400011240BB60F922F933F934F935F936F9379
:103650007F938F939F93AF93BF93EF93FF938BEDE4
:1036600099E00E94BE02FF91EF91BF91AF919F91AF
:103670008F917F916F915F914F913F912F910F901B
:103680000BBE0F900FBE0F901F9018951F920F92B8
:103690000FB60F9211240BB60F922F933F934F93B7
:1036A0005F936F937F938F939F93AF93BF93EF93AA
:1036B000FF93E0915907F0915A07309749F0A6859A
:1036C000B7858585968D91FF16C09C918923B1F4AD
:1036D000FF91EF91BF91AF919F918F917F916F91EA
:1036E0005F914F913F912F910F900BBE0F900FBEA6
:1036F0000F901F9018959C91892351F7A389B48945
:103700009C918589809589238C93868997890197D7
:10371000F1F7608D718DA685B785558538E020E07D
:10372000CB010197F1F7822F90E095958795282F8F
:103730004C91452309F02068315091F7868D81FD29
:1037400020958091580790E001968F7399273091CA
:103750005707381799F0A0915807B0E0AF5EBA4FFD
:103760002C9380935807828D938D0197F1F7A3894D
:10377000B4898C919589892B8C93AACF868D816091
:10378000868FF1CF1F920F920FB60F9211240BB6B6
:103790000F922F933F934F935F936F937F938F93EA
:1037A0009F93AF93BF93EF93FF938091B900887F6E
:1037B000803609F44CC008F03FC0883209F4A8C034
:1037C00028F5803109F49CC0C8F4882309F4FAC0B4
:1037D000883009F495C0FF91EF91BF91AF919F910F
:1037E0008F917F916F915F914F913F912F910F90AA
:1037F0000BBE0F900FBE0F901F901895883109F4E3
:1038000087C0803241F78093DC0714C0803409F40C
:103810009CC040F48033B9F38833E9F68093DC0729
:1038200085ECAFC0803509F484C0883509F495C0B3
:10383000883489F6FDDBCFCF883909F48CC038F5A0
:10384000883729F050F4883611F0803721F683E06C
:103850008093FE071092100557C0883809F47BC08A
:10386000803919F0803809F0B6CF80911005803288
:1038700008F071C0E091100581E08E0F8093100573
:103880008091BB00F0E0E051FB4F80833DC0803B66
:1038900039F0E0F4803A09F479C0883A09F09BCF16
:1038A00084E08093FE071092EF041092EE04E09102
:1038B000270CF091280C19958091EE0481110FC00E
:1038C00081E08093EE041092CE0409C0803C09F49C
:1038D000A7CF883C09F4A4CF883B09F07CCFE091C6
:1038E000EF0481E08E0F8093EF04F0E0E253FB4F92
:1038F00080818093BB009091EF048091EE0429C0F9
:103900008091D9078093BB0085EC8093BC0063CF86
:103910009091DB078091DA07981758F5E091DB0763
:1039200081E08E0F8093DB07F0E0E854F84F808150
:10393000E9CFE091DB0781E08E0F8093DB07809178
:10394000BB00F0E0E854F84F80839091DB07809152
:10395000DA079817C8F285E8D8CFE091DB0781E055
:103960008E0F8093DB078091BB00F0E0E854F84FA6
:1039700080838091DD0781115DCF81E08093D8073E
:1039800084EA8093BC001092FE0725CF85EC8093DB
:10399000BC001092FE0780911005803230F4E09157
:1039A0001005F0E0E051FB4F10826091100570E0CF
:1039B000E091250CF091260C80EF94E0199510927F
:1039C000100509CF1092DC0735CFCF92DF92EF922E
:1039D000FF92109207081092060888EE93E0A0E08C
:1039E000B0E08093080890930908A0930A08B09368
:1039F0000B082AE332E0309305082093040845E3DE
:103A000051E0509311084093100844E351E0509363
:103A100013084093120840E351E050931508409377
:103A2000140841E351E0509317084093160842E30D
:103A300051E0509319084093180846E351E0509321
:103A40001B0840931A0810921D0810921E0810922D
:103A50001F08109220081092A4081092A3088093C7
:103A6000A5089093A608A093A708B093A808309340
:103A7000A2082093A10845ED50E05093AE08409372
:103A8000AD0844ED50E05093B0084093AF0840EDCE
:103A900050E05093B2084093B10841ED50E050938C
:103AA000B4084093B30842ED50E05093B6084093F9
:103AB000B50846ED50E05093B8084093B70810920F
:103AC000BA081092BB081092BC081092BD08109260
:103AD0004109109240098093420990934309A093B1
:103AE0004409B093450930933F0920933E094DECBA
:103AF00050E050934B0940934A094CEC50E05093EE
:103B00004D0940934C0948EC50E050934F094093C5
:103B10004E0949EC50E050935109409350094AEC4A
:103B200050E050935309409352094EEC50E05093AB
:103B30005509409354091092570910925809109250
:103B4000590910925A091092DE091092DD098093EA
:103B5000DF099093E009A093E109B093E209309363
:103B6000DC092093DB0925EC30E03093E809209351
:103B7000E70924EC30E03093EA092093E90920ECCE
:103B800030E03093EC092093EB0921EC30E03093E6
:103B9000EE092093ED0922EC30E03093F0092093F8
:103BA000EF0926EC30E03093F2092093F1091092EE
:103BB000F4091092F5091092F6091092F7092CE415
:103BC00032E03093790A2093780A10927A0A1092A0
:103BD0007B0A10927C0A10927D0A30937F0A209310
:103BE0007E0A1092800A1092810A1092820A109224
:103BF000830A24E83AE01092C50A1092C40A30936E
:103C0000C80A2093C70A40E450E05093CA0A409380
:103C1000C90A1092CB0A1092CC0A1092CE0A1092C6
:103C2000CD0A1092CF0A1092D10A1092D00A1092A7
:103C3000D30A1092D20A1092D50A1092D40A109286
:103C4000D70A1092D60A1092D90A1092D80A109266
:103C5000DB0A1092DA0A1092DD0A1092DC0A109246
:103C6000E30A1092E20A1092E50A1092E40A109216
:103C7000E70A1092E60A1092E90A1092E80A1092F6
:103C8000F70A1092F60A1092C60A1092040B1092CC
:103C9000060B1092050B1092D90B4CE551E0509396
:103CA000EB0A4093EA0A4DE551E05093ED0A409348
:103CB000EC0A4EE551E05093EF0A4093EE0A4FE5CF
:103CC00051E05093F10A4093F00A40E651E05093DE
:103CD000F30A4093F20A41E651E05093F50A40930B
:103CE000F40A42E651E05093F90A4093F80A43E699
:103CF00051E05093FB0A4093FA0A48E555E050938F
:103D0000FD0A4093FC0A3093DF0A2093DE0A4CE25E
:103D100055E05093FF0A4093FE0A3093E10A209346
:103D2000E00A24E631E03093010B2093000B10925F
:103D3000DF0B1092E00B1092E30B1092E50B42E0C8
:103D400050E060E070E04093E60B5093E70B609327
:103D5000E80B7093E90B1092FD0B1092070C109278
:103D6000060C22E532E03093050C2093040C1092EF
:103D7000090C20E52093230C1092240C1092300C97
:103D800010922F0C8093310C9093320CA093330C33
:103D9000B093340C2EE532E030932E0C20932D0C92
:103DA00022E53DE04FE14093570D46E14093580D29
:103DB000E5E2F2E0E491E093590DEFEDF1E0E491FA
:103DC000E0935A0D50E8C52E5EE3D52EE12CF12C80
:103DD000C0925F0DD092600DE092610DF092620D85
:103DE0004093650D40E952E05093670D4093660D96
:103DF00030936A0D2093690D4FEF5FEFBA01409346
:103E00006B0D50936C0D60936D0D70936E0DE2E829
:103E1000F2E0F093700DE0936F0D3093730D2093EB
:103E2000720D4093740D5093750D6093760D7093E1
:103E3000770D2AE83CE030937D0C20937C0C309386
:103E40007F0C20937E0C22E53DE03093810C209383
:103E5000800C3093830C2093820C1092840C10926F
:103E6000890C1092600C10925F0C8093610C9093FF
:103E7000620CA093630CB093640C80E792E0909383
:103E80005E0C80935D0C1092740C1092730C109267
:103E9000760C1092750C1092780C1092770C109290
:103EA0007A0C1092790C60917B0C6E7F6D7F609321
:103EB0007B0C6695617081E0682782E10E94660153
:103EC00061E082E10E94F201E8E1F2E0E491E09336
:103ED0006D0CE2EDF1E0E491F0E0EE0FFF1FEA552A
:103EE000FE4F8591949190936F0C80936E0C60E0DF
:103EF00083E10E94F20180917B0C81FD04C061E0AE
:103F000083E10E94660183E18093690CE9E1F2E0BC
:103F1000E491E0936A0CE3EDF1E0E491F0E0EE0F60
:103F2000FF1FE457FE4F8591949190936C0C809302
:103F30006B0C10922C0C10922B0C10922A0C1092DD
:103F4000290C0E94E20D8AE591E09093280C809361
:103F5000270C8BE591E09093260C8093250C81E54E
:103F600090E090935C0C80935B0CFF90EF90DF905F
:103F7000CF900895CF93DF93CDB7DEB7C45FD1095B
:103F80000FB6F894DEBF0FBECDBF789484B58260C3
:103F900084BD84B5816084BD85B5826085BD85B5ED
:103FA000816085BD80916E00816080936E0010926B
:103FB00081008091810082608093810080918100E6
:103FC0008160809381008091800081608093800077
:103FD0008091B10084608093B1008091B0008160D5
:103FE0008093B000809191008260809391008091D5
:103FF0009100816080939100809190008160809316
:1040000090008091A10082608093A1008091A10026
:1040100081608093A1008091A00081608093A000C6
:104020008091210182608093210180912101816032
:1040300080932101809120018160809320018091F3
:104040007A00846080937A0080917A008260809305
:104050007A0080917A00816080937A0080917A0062
:10406000806880937A001092C100E091EB09F09192
:10407000EC0982E08083E091E709F091E809108281
:10408000E091E909F091EA0983E380831092F30952
:10409000E091EF09F091F00986E08083E091ED096D
:1040A000F091EE09808180618083E091ED09F091CB
:1040B000EE09808188608083E091ED09F091EE093E
:1040C000808180688083E091ED09F091EE09808124
:1040D0008F7D80831092780C1092770C1092760C62
:1040E0001092750C1092740C1092730C85E690E08F
:1040F00090937A0C8093790C8091690C96EF980FCD
:10410000943048F02EEC280F243028F022EC280FB1
:10411000283008F061C021E230E03093740C209325
:10412000730C23E630E03093760C2093750C22E478
:1041300030E03093780C2093770C943050F02EECD4
:10414000280F243030F022EC280FF0E0E0E0283097
:1041500010F4E8E6F0E02081943028F032EC380FDB
:10416000383008F410C431E0232B943048F09EEC32
:10417000980F943028F08E53F0E0E0E0883010F48F
:10418000E8E6F0E020832091690C36EF320F3430FE
:1041900008F4FBC38EEC820F843008F4F6C382EC83
:1041A000820F883008F4F4C390E080E09093710CA3
:1041B0008093700C343008F0EEC32650330B81E04E
:1041C00001C0880F2A95EAF78093720C8091790CD0
:1041D00090917A0C0197F1F78091770C9091780C7F
:1041E000892B49F1E0915907F0915A072CE0ED3500
:1041F000F20709F1309739F0A389B4899C91858938
:10420000809589238C9380917B0C8E7F80937B0C8F
:1042100010925807109257078DE59CE090935A072B
:1042200080935907E091700CF091710C808190910E
:10423000720C892B808362E08091570D0E94F201FD
:104240000E948402605D77408109910960935B0D53
:1042500070935C0D80935D0D90935E0D87E380936A
:10426000640D10922C0C10922B0C10922A0C1092B0
:10427000290C0E94E20D8AE591E09093280C80932E
:10428000270C8BE591E09093260C8093250C6FED25
:1042900072E085E89CE00E940A1166EE72E00E94DE
:1042A0007111BC0180915C070E94D40F6FED72E028
:1042B00085E89CE00E940A116CEE72E00E94711188
:1042C000BC0180915B070E94D40F6FED72E085E81E
:1042D0009CE00E940A1162EF72E00E947111BC0121
:1042E000809162070E94D40F6FED72E085E89CE038
:1042F0000E940A1168EF72E00E947111BC01809166
:1043000061070E94D40F6FED72E085E89CE00E9487
:104310000A116EEF72E00E947111BC0180E00E94F0
:10432000D40F6FED72E085E89CE00E940A1164E012
:1043300073E00E947111FC01892B61F094819078E7
:104340009C60948380E090E0A0EAB1E48083918354
:10435000A283B3836FED72E085E89CE00E940A11AE
:104360006DE073E00E947111FC01892B61F0948172
:1043700090789C60948380E090E0A0E0B1E480833A
:104380009183A283B3836FED72E085E89CE00E9485
:104390000A1166E173E00E947111FC01892B61F042
:1043A000948190789C60948380E090E0A4EBB2E4E8
:1043B00080839183A283B3836FED72E085E89CE0F4
:1043C0000E940A116FE173E00E947111FC01892BB8
:1043D00061F0948190789C60948380E090E0A0EA02
:1043E000B2E480839183A283B3837E0139ECE30E30
:1043F000F11C8091680DF701828380E992E091833E
:1044000080838091690D90916A0D9483838380915C
:104410006B0D90916C0DA0916D0DB0916E0D85831B
:104420009683A783B0878E010F5F1F4FB801C70126
:104430000E9488178091710DF701828382E892E0D3
:10444000918380838091720D9091730D9483838307
:104450008091740D9091750DA091760DB091770DAE
:1044600085839683A783B087B801C7010E940D1783
:104470006DA17EA18FA198A528EE33E040E050E029
:10448000D5D630938C0720938B0797E6292E94E09E
:10449000392E60918B0770918C07072E000C880BCA
:1044A000990B0E9453028CE1EAE1F2E0DE01A7538E
:1044B000BF4F01900D928A95E1F70E94C110709054
:1044C0003A0C0E94C110C090390C0E947510D09017
:1044D0003F0C0E947510E0903E0C0E947510F09009
:1044E0003C0C0E9475101F927F921F92CF921F92D8
:1044F000DF921F92EF921F92FF9280913D0CF4E0A9
:104500008F9FC001112429EC30E02C0F3D1F820F3A
:10451000931F9F938F9388E293E09F938F931F93B2
:104520000F93C7D664E473E085E89CE00E940A110B
:1045300069E473E00E947111CB51DF4F9983888346
:10454000C55ED0402CE73CE0C951DF4F398328835A
:10455000C75ED040CB51DF4F488159816A817B8152
:10456000C55ED040C8010E94F7148091680D8B830E
:1045700080E992E09A8389838091690D90916A0D18
:104580009D838C8380916B0D90916C0DA0916D0D2E
:10459000B0916E0D8E839F83A887B98767E677E019
:1045A000C8010E943016C0907B07D0907C07E09035
:1045B0007D07F0907E07C0925D07D0925E07E09283
:1045C0005F07F09260070FB6F894DEBF0FBECDBF55
:1045D000A7019601C701B601EFD5882309F4F0C100
:1045E00061E573E0C8014FD664E473E085E89CE0C0
:1045F0000E940A1165E573E00E94711161E673E0A3
:104600000E947111C751DF4F99838883C95ED040E2
:104610008CE79CE0C551DF4F99838883CB5ED04007
:10462000C751DF4F488159816A817B81C95ED04083
:10463000C8010E94F714C0905D07D0905E07E0901B
:104640005F07F090600720E030E040E051E4C701F0
:10465000B601FFD387FFD8C180915C07811103C0E9
:1046600081E080935C07C701B60171D52B01072E4D
:10467000000C880B990BF3D39B01AC01C701B60169
:1046800001D520E030E048EC52E448D49F775FD574
:104690007F936F935F924F92E7E6F3E0FF93EF9380
:1046A0001F930F9306D60FB6F894DEBF0FBECDBF93
:1046B00064E473E085E89CE00E940A1165E573E01C
:1046C0000E94711162E074E00E947111C351DF4FCA
:1046D00099838883CD5ED040ECE7FCE0C151DF4F89
:1046E000F983E883CF5ED040C351DF4F48815981C1
:1046F0006A817B81CD5ED040C8010E94F714809111
:10470000710D8B8322E832E03A8329838091720D08
:104710009091730D9D838C838091740D9091750D94
:10472000A091760DB091770D8E839F83A887B9876E
:1047300067E677E0C8010E94B015C0907B07D09073
:104740007C07E0907D07F0907E07C0926307D092CF
:104750006407E0926507F0926607A7019601C7011A
:10476000B6012AD5882309F4BBC161E573E0C8010D
:104770008AD564E473E085E89CE00E940A116BE04E
:1047800074E00E94711161E673E00E947111CF50D4
:10479000DF4F99838883C15FD040ECE7FCE0CD50C8
:1047A000DF4FF983E883C35FD040CF50DF4F4881AC
:1047B00059816A817B81C15FD040C8010E94F71492
:1047C000C0906307D0906407E0906507F09066079B
:1047D00020E030E040EA52E4C701B6013AD387FF57
:1047E000A3C180916207811103C081E080936207B9
:1047F00080916107811103C081E080936107C70147
:10480000B601A5D42B01072E000C880B990B27D3DA
:104810009B01AC01C701B60135D420E030E048EC83
:1048200052E47CD39F7793D47F936F935F924F92A0
:1048300023E134E03F932F931F930F933AD50FB6A4
:10484000F894DEBF0FBECDBF64E473E085E89CE062
:104850000E940A116BE074E00E94711162E074E042
:104860000E9471114C018CE7A82E8CE0B82EB50186
:10487000A401C8010E94F71429EC30E02C0F3D1F61
:10488000C753DF4F39832883C95CD040C553DF4FFE
:1048900019830883CB5CD040C353DF4F1982188241
:1048A000CD5CD040B90185E89CE00E943F12883C75
:1048B000910520F4800F911FFC011082B8018BED4F
:1048C00099E00E9477116FE674E08BED99E00E9409
:1048D0007711B8018DE59CE00E9477116FE674E0D6
:1048E0008DE59CE00E9477116FE674E08BED99E016
:1048F0000E9477118DE59CE00E94FE0C892BD1F07F
:104900008DE59CE00E94140DF82E62E774E08BEDBB
:1049100099E00E9477114F2D50E070E060E02AE0AE
:104920008BED99E00E9486116FE674E08BED99E0C3
:104930000E9477118BED99E00E940803892BD1F03A
:104940008BED99E00E94E602F82E67E874E08DE5B1
:104950009CE00E9477114F2D50E070E060E02AE06B
:104960008DE59CE00E9486116FE674E08DE59CE089
:104970000E94771163E070E080E090E00E945302B3
:104980000E94C50386CD34E0EFCB8BE690E00ECCE1
:104990008DE690E00BCC88E0223309F415CC84E05E
:1049A000233309F411CC82E0243309F40DCC82ECDA
:1049B000820F883018F42E53330B01CC81E004CCE5
:1049C000C701B601C4D32B01072E000C880B990B2D
:1049D00046D29B01AC01C701B60154D320E030E0C0
:1049E00048EC52E49BD29F77B2D37F936F935F9250
:1049F0004F923F922F921F930F935BD40FB6F89470
:104A0000DEBF0FBECDBFF0CD20E030E040E051E48E
:104A1000C701B6011ED281110DC080915B078111C3
:104A200010925B071F921F921F9288E08F93E9E913
:104A3000F3E034CE20E030E040E651E4C701B601B7
:104A4000B7D387FD2AC020E030E040E751E4C7013A
:104A5000B601FFD187FF21C080915C0781111092C0
:104A60005C07C701B60173D32B01072E000C880B1E
:104A7000990BF5D19B01AC01C701B60103D320E02E
:104A800030E048EC52E44AD29F7761D37F936F9332
:104A90005F924F92E4EBF3E001CE80915B078111CE
:104AA00003C081E080935B07C701B60150D32B019F
:104AB000072E000C880B990BD2D19B01AC01C701CA
:104AC000B601E0D220E030E048EC52E427D29F77F4
:104AD0003ED37F936F935F924F92E0EDF3E0DECD94
:104AE000C701B60134D32B01072E000C880B990B9C
:104AF000B6D19B01AC01C701B601C4D220E030E0C1
:104B000048EC52E40BD29F7722D37F936F935F924E
:104B10004F923F922F921F930F93CBD30FB6F894DF
:104B2000DEBF0FBECDBF25CE20E030E040EA52E42C
:104B3000C701B6013DD387FD2FC020E030E044EB34
:104B400052E4C701B60185D1181634F1809162078D
:104B500081111092620780916107811110926107A3
:104B6000C701B601F4D22B01072E000C880B990B5C
:104B700076D19B01AC01C701B60184D220E030E0C0
:104B800048EC52E4CBD19F77E2D27F936F935F9250
:104B90004F9221E434E04ECEC701B601D8D22B01AA
:104BA000072E000C880B990B5AD19B01AC01C70151
:104BB000B60168D220E030E048EC52E4AFD19F77F4
:104BC000C6D27F936F935F924F9229E534E032CE45
:104BD00080E792E090935E0C80935D0C8091590782
:104BE00090915A078D559C4071F4E091700CF091B2
:104BF000710C90818091720C809589238083109232
:104C00005A071092590708950F931F93CF93DF937C
:104C10008230910510F482E090E0E0917A0DF091FD
:104C20007B0D30E020E0B0E0A0E0309799F4211552
:104C3000310509F44AC0281B390B24303105D8F559
:104C40008A819B816115710589F1FB0193838283C0
:104C5000FE0111C04081518102811381481759071B
:104C6000E0F04817590799F4109761F012960C93E9
:104C7000129713961C933296CF01DF91CF911F911B
:104C80000F91089500937A0D10937B0DF4CF2115A9
:104C9000310551F04217530738F0A901DB019A01A1
:104CA000BD01DF01F801C1CFEF01F9CF90937B0D7A
:104CB00080937A0DCDCFFE01E20FF31F8193919384
:104CC0002250310939832883D7CF2091780D309134
:104CD000790D232B41F42091160230911702309365
:104CE000790D2093780D2091140230911502211531
:104CF000310541F42DB73EB7409118025091190289
:104D0000241B350BE091780DF091790DE217F30734
:104D1000A0F42E1B3F0B2817390778F0AC014E5F2B
:104D20005F4F2417350748F04E0F5F1F5093790DE2
:104D30004093780D819391939FCFF0E0E0E09CCF7A
:104D4000CF93DF930097E9F0FC0132971382128230
:104D5000A0917A0DB0917B0DED0130E020E010972D
:104D6000A1F420813181820F931F2091780D309121
:104D7000790D2817390709F061C0F093790DE09398
:104D8000780DDF91CF910895EA01CE17DF07E8F59E
:104D90004A815B819E0141155105B1F7E901FB8311
:104DA000EA8349915991C40FD51FEC17FD0761F4AF
:104DB000808191810296840F951FE90199838883F0
:104DC000828193819B838A83F0E0E0E012968D914B
:104DD0009C9113970097B9F52D913C911197CD01B6
:104DE0000296820F931F2091780D3091790D28172C
:104DF000390739F6309751F510927B0D10927A0DE4
:104E0000B093790DA093780DBCCFD383C28340813A
:104E10005181840F951FC817D90761F44E5F5F4F0A
:104E200088819981480F591F518340838A819B81D2
:104E3000938382832115310509F0B0CFF0937B0D68
:104E4000E0937A0D9ECFFD01DC01C0CF1382128268
:104E5000D7CF40D008F481E00895E89409C097FBCB
:104E60003EF490958095709561957F4F8F4F9F4F41
:104E70009923A9F0F92F96E9BB279395F695879585
:104E800077956795B795F111F8CFFAF4BB0F11F448
:104E900060FF1BC06F5F7F4F8F4F9F4F16C08823EF
:104EA00011F096E911C0772321F09EE8872F762F25
:104EB00005C0662371F096E8862F70E060E02AF066
:104EC0009A95660F771F881FDAF7880F9695879552
:104ED00097F90895990F0008550FAA0BE0E8FEEF27
:104EE00016161706E807F907C0F012161306E407AE
:104EF000F50798F0621B730B840B950B39F40A26A7
:104F000061F0232B242B252B21F408950A2609F484
:104F1000A140A6958FEF811D811D08950BD078C00B
:104F200069D028F06ED018F0952309F05AC05FC000
:104F30001124A2C07ED0A0F3959FD1F3950F50E02D
:104F4000551F629FF001729FBB27F00DB11D639F3B
:104F5000AA27F00DB11DAA1F649F6627B00DA11DE1
:104F6000661F829F2227B00DA11D621F739FB00D87
:104F7000A11D621F839FA00D611D221F749F3327F7
:104F8000A00D611D231F849F600D211D822F762F90
:104F90006A2F11249F5750408AF0E1F088234AF08D
:104FA000EE0FFF1FBB1F661F771F881F91505040D9
:104FB000A9F79E3F510570F014C05EC05F3FECF34F
:104FC000983EDCF3869577956795B795F795E795C5
:104FD0009F5FC1F7FE2B880F911D9695879597F9D6
:104FE000089597F99F6780E870E060E008959FEF6B
:104FF00080EC089500240A94161617061806090670
:10500000089500240A94121613061406050608953E
:10501000092E0394000C11F4882352F0BB0F40F4C6
:10502000BF2B11F460FF04C06F5F7F4F8F4F9F4F06
:10503000089557FD9058440F551F59F05F3F71F088
:105040004795880F97FB991F61F09F3F79F08795EF
:105050000895121613061406551FF2CF4695F1DF78
:1050600008C0161617061806991FF1CF8695710508
:10507000610508940895E894BB2766277727CB013C
:1050800097F908955058BB27AA270ED0C1CFB2DF99
:1050900030F0B7DF20F031F49F3F11F41EF4A7CFBA
:1050A0000EF4E095E7FB9DCFE92FC3DF80F3BA173D
:1050B000620773078407950718F071F49EF5DBCF3C
:1050C0000EF4E0950B2EBA2FA02D0B01B901900123
:1050D0000C01CA01A0011124FF27591B99F0593F67
:1050E00050F4503E68F11A16F040A22F232F342FAF
:1050F0004427585FF3CF469537952795A795F040FD
:105100005395C9F77EF41F16BA0B620B730B840B11
:10511000BAF09150A1F0FF0FBB1F661F771F881FC9
:10512000C2F70EC0BA0F621F731F841F48F4879521
:1051300077956795B795F7959E3F08F0B3CF939510
:10514000880F08F09927EE0F97958795089504D05A
:105150006894B11191CF089574DF88F09F5790F053
:10516000B92F9927B751A0F0D1F0660F771F881F8C
:10517000991F1AF0BA95C9F712C0B13081F07BDFE0
:10518000B1E0089578CF672F782F8827B85F39F07E
:10519000B93FCCF3869577956795B395D9F73EF4EB
:1051A00090958095709561957F4F8F4F9F4F089593
:1051B00091DE08F48FEF08958DDE880B990B08952A
:1051C000AA1BBB1B51E107C0AA1FBB1FA617B7072D
:1051D00010F0A61BB70B881F991F5A95A9F7809549
:1051E0009095BC01CD010895A1E21A2EAA1BBB1B0C
:1051F000FD010DC0AA1FBB1FEE1FFF1FA217B307A3
:10520000E407F50720F0A21BB30BE40BF50B661FB8
:10521000771F881F991F1A9469F76095709580957C
:1052200090959B01AC01BD01CF010895052E97FB20
:1052300016F400940FD057FD05D0D6DF07FC02D03E
:1052400046F408C050954095309521953F4F4F4FFB
:105250005F4F089590958095709561957F4F8F4F22
:105260009F4F0895EE0FFF1F881F8BBF0790F69189
:10527000E02D1994FB01DC018D9101908019011042
:10528000D9F3990B0895FB01DC0101900D920020E8
:10529000E1F70895FB01DC014150504048F00190D6
:1052A0000D920020C9F701C01D9241505040E0F717
:1052B00008950F931F93CF93DF93CDB7DEB72E974B
:1052C0000FB6F894DEBF0FBECDBF0E891F8986E0F2
:1052D0008C831A8309838FEF9FE79E838D83AE01B2
:1052E000465E5F4F688D798DCE01019611D02F817A
:1052F0003885020F131FF80110822E960FB6F8940E
:10530000DEBF0FBECDBFDF91CF911F910F910895EA
:105310002F923F924F925F926F927F928F929F92C5
:10532000AF92BF92CF92DF92EF92FF920F931F93B3
:10533000CF93DF9300D000D000D01F921F92CDB743
:10534000DEB77C013B018A01FC0117821682838152
:1053500081FFD0C1CE0101965C01F7019381F30179
:1053600093FD859193FF81913F01882309F449C101
:10537000853239F493FD859193FF81913F01853208
:1053800021F4B70190E0CFD1E8CF912C212C312C22
:10539000FFE1F31538F08B3211F190F4803209F10E
:1053A000833229F137FC3CC020ED280F2A3050F51C
:1053B00036FE20C08AE0989E200D1124922E06C051
:1053C0008D3291F0803371F7689430F8F30193FDDA
:1053D000859193FF81913F018111DACF21C06894BB
:1053E00031F8689432F8F2CF689433F8EFCF6894CC
:1053F00034F8ECCFEAE02E9E200D1124222E689482
:1054000035F8E4CF8E3229F436FCFBC0689436F8C8
:10541000DDCF8C3619F4689437F8D8CF8836B1F2DE
:10542000982F9F7D95549330D8F0833691F1833730
:10543000B1F1833509F05EC02801F2E04F0E511C36
:10544000F801C080D180692D70E036FC02C06FEF9A
:105450007FEFC60152D14C01689437F882010AC02F
:105460000C5F1F4FFFE3F98388248394912C65011F
:10547000E89437F833FE2AC0522C8114910459F570
:10548000552009F46ACFB70180E290E04CD15A94DC
:10549000F7CFF801808189830E5F1F4FE5CF280188
:1054A000F2E04F0E511CF801C080D180692D70E0F0
:1054B00036FC02C06FEF7FEFC6012AD14C0182019A
:1054C000D7CFB70180E290E02ED12A942814190496
:1054D00009F0B8F7D1CFF60137FC859137FE8191FD
:1054E0006F01B70190E01FD151105A94F1E08F1A6B
:1054F0009108C3CF843619F0893609F073C0F801DA
:1055000037FE67C060817181828193810C5F1F4F7C
:10551000F32DFF763F2E97FF09C0909580957095EB
:1055200061957F4F8F4F9F4F689437F82AE030E0A6
:10553000A50129D1C82ECA188C2C432C36FE0CC0CC
:10554000E89440F8C91440F434FE05C032FC03C0AE
:10555000F32DFE7E4F2E892C44FEA6C0FE01EC0DDD
:10556000F11D8081803309F098C0242D297E422EC0
:10557000842D8870582E43FCA5C040FE9FC09C2CF3
:10558000821418F42C0C922C981844FEA1C0B70178
:1055900080E390E0C8D042FE08C088E790E041FE7A
:1055A00002C088E590E0B701BED0C91408F49CC0E1
:1055B000CA94D12C9FEFC91AD90ACA0CDB1CF60178
:1055C00082916F01B70190E0AED0AC14BD04B9F781
:1055D00057CF60817181072E000C880B990B0E5FED
:1055E0001F4F96CFD32CE894D4F82AE030E08537CB
:1055F000E1F1232D297FD22E8F36A9F1F0F48835E1
:1056000051F1F701868197812B960FB6F894DEBF92
:105610000FBECDBFDF91CF911F910F91FF90EF9003
:10562000DF90CF90BF90AF909F908F907F906F90C2
:105630005F904F903F902F900895803749F08837C2
:1056400001F7D4FE02C06894D2F820E130E00DC02A
:105650006894D4F8F6CF34FE03C0822F8660D82E2B
:1056600020E132E002C028E030E0F801D7FE0EC0B1
:1056700060817181828193810C5F1F4FA50183D06E
:10568000C82ECA183D2CE89437F856CF6081718136
:1056900090E080E00E5F1F4FF1CF42FC02C0839488
:1056A00067CF8394839464CF842D867809F460CF88
:1056B000F6CFB70180E290E036D083948214C8F32D
:1056C000512C63CF522C5818821408F45ECFF8CFB7
:1056D000842D867809F469CF8BE241FE80E247FC95
:1056E0008DE2B70190E060CFB70180E390E01BD07E
:1056F0009A945BCF8FEF9FEF87CFFC0105906150AD
:1057000070400110D8F7809590958E0F9F1F0895D7
:10571000FC016150704001900110D8F78095909580
:105720008E0F9F1F08950F931F93CF93DF93182F12
:10573000092FEB018B8181FD09C01FEF0FEF812F36
:10574000902FDF91CF911F910F91089582FF14C088
:105750002E813F818C819D81281739073CF4E88197
:10576000F981CF0101969983888310838E819F816F
:1057700001969F838E83E3CFE885F985812F199564
:10578000892BA1F3DACFFA01AA27283051F1203171
:1057900081F1E8946F936E7F6E5F7F4F8F4F9F4FC5
:1057A000AF4FB1E03ED0B4E03CD0670F781F891F07
:1057B0009A1FA11D680F791F8A1F911DA11D6A0FD5
:1057C000711D811D911DA11D20D009F468943F9188
:1057D0002AE0269F11243019305D3193DEF6CF0187
:1057E0000895462F4770405D4193B3E00FD0C9F74D
:1057F000F6CF462F4F70405D4A3318F0495D31FDBA
:105800004052419302D0A9F7EACFB4E0A69597950C
:10581000879577956795BA95C9F7009761057105E2
:1058200008959B01AC010A2E06945795479537952C
:105830002795BA95C9F7620F731F841F951FA01D86
:10584000089511E0C7E2D1E000E005C0802FFE011D
:1058500009DD2196011DC832D10780E00807B1F7A4
:04586000F894FFCFEA
:10586400FFFFFFFF900290029002900290029002CC
:105874009002900200007C0D8000444F4D0053457F
:105884004700544552005155410051554900534574
:10589400580053414200000000005A039102D7020D
:1058A400A6030803E602FA0200000000D11100007A
:1058B40000001B0B9102C70A650100000000B40D33
:1058C400880D5E0DA10C570D440D350D0000000030
:1058D400A20C91025E0DA10CFE0C140D890C0000AB
:1058E4000000DD0F52187410B0150D1700000000F1
:1058F400DD0F50187410301688172F2F22225C5C8D
:105904006208660C6E0A720D7409005C75303030E2
:1059140030006E756C6C00747275650066616C7332
:1059240065004448543131004448543132004448FD
:10593400543231004448543232004448543F0063E6
:105944006F6E6669670072656C65310072656C65BF
:10595400320072656C65330072656C653400726583
:105964006C65350074656D705F6D61780074656D8C
:10597400705F6D696E00756D69645F6D6178007547
:105984006D69645F6D696E00257320253032642F64
:10599400253032642F2530326420253032643A2594
:1059A400303264006461746100646961486F7261DB
:1059B400004E614E0074656D70657261747572613C
:1059C4000076616C6F720054656D706572617475F8
:1059D40072612042616978613A2025642E25303253
:1059E40075202D204171756563696D656E746F2036
:1059F400696E69636961646F0054656D7065726195
:105A040074757261204E6F726D616C3A25642E2537
:105A14003032750054656D70657261747572612001
:105A24004E6F726D616C3A2025642E2530327500FC
:105A340054656D706572617475726120416C746136
:105A44003A2025642E25303275202D205265736648
:105A54007269616D656E746F20696E6963696164F2
:105A64006F006D656E736167656D00756D69646166
:105A7400646500556D69646164652042616978619B
:105A84003A2025642E25303275202D204E6562750E
:105A94006C697A6163616F20696E696369616461CD
:105AA40000556D6964616465204E6F726D616C3A76
:105AB4002025642E2530327500556D696461646556
:105AC40020416C74613A2025642E25303275000D16
:105AD4000A00526563656269646F20426C7565747F
