:100000000C9463000C948B000C948B000C946A0C81
:100010000C946A0C0C946A0C0C948B000C948B005E
:100020000C948B000C948B000C948B000C948B0024
:100030000C948B000C948B000C948B000C948B0014
:100040000C94C80B0C948B000C94380C0C94120C70
:100050000C948B000C948B000C948B000C948B00F4
:100060000C94E20C0C948B0000000000240027008C
:100070002A0000000008000201000003040700003D
:1000800000000000000000000000230026002900FE
:1000900000000000250028002B00040404040404D0
:1000A0000404020202020202030303030303010227
:1000B00004081020408001020408102001020408F6
:1000C0001020010E8F1311241FBECFEFD8E0DEBF2A
:1000D000CDBF25E0A0EFB2E001C01D92AF33B20763
:1000E000E1F712E0A0E0B1E0E8EBF3E302C0059035
:1000F0000D92A03FB107D9F710E0C2E6D0E004C0EE
:100100002197FE010E94F415C136D107C9F70E945C
:100110002B0F0C94CF190C9400000895089590E0D3
:10012000FC01EE58FF4F2491FC01E255FF4F349142
:10013000FC01E656FF4FE491EE23C9F0222339F08B
:10014000233001F1A8F4213019F1223029F1F0E037
:10015000EE0FFF1FE057FF4FA591B4918FB7F894B2
:10016000EC91611126C030953E233C938FBF0895DA
:100170002730A9F02830C9F0243049F78091800059
:100180008F7D03C0809180008F7780938000DFCFC8
:1001900084B58F7784BDDBCF84B58F7DFBCF809115
:1001A000B0008F778093B000D2CF8091B0008F7D68
:1001B000F9CF3E2BDACFCF93DF9390E0FC01E255ED
:1001C000FF4F249186569F4FFC0184918823C9F0EC
:1001D00090E0880F991FFC01E859FF4FA591B49159
:1001E000FC01E057FF4FC591D49161110DC09FB73D
:1001F000F8948C91209582238C93888128232883DE
:100200009FBFDF91CF910895623051F49FB7F8946A
:100210003C91822F809583238C93E8812E2BEFCF06
:100220008FB7F894EC912E2B2C938FBFEACF3FB76A
:10023000F8948091AB039091AC03A091AD03B09181
:10024000AE0326B5A89B05C02F3F19F00196A11D4E
:10025000B11D3FBFBA2FA92F982F8827BC01CD0110
:10026000620F711D811D911D42E0660F771F881F6F
:10027000991F4A95D1F708958F929F92AF92BF929E
:10028000CF92DF92EF92FF926B017C010E941701E7
:100290004B015C01C114D104E104F104B9F00E94E6
:1002A0001701681979098A099B09683E734081051D
:1002B000910580F321E0C21AD108E108F10888EE27
:1002C000880E83E0981EA11CB11CE4CFFF90EF9034
:1002D000DF90CF90BF90AF909F908F900895AF9296
:1002E000BF92CF92DF92EF92FF920F931F93CF9323
:1002F000DF936C017B018B01040F151FEB015E0185
:10030000AE18BF08C017D10759F06991D601ED9119
:10031000FC910190F081E02DC6010995892B79F7B8
:10032000C501DF91CF911F910F91FF90EF90DF906A
:10033000CF90BF90AF900895FC01538D448D252F31
:1003400030E0842F90E0821B930B541710F0CF966F
:10035000089501970895FC01918D828D981761F0A1
:10036000A28DAE0FBF2FB11D5D968C91928D9F5FB8
:100370009F73928F90E008958FEF9FEF0895FC0197
:10038000918D828D981731F0828DE80FF11D858D4A
:1003900090E008958FEF9FEF0895FC01918D228DDD
:1003A000892F90E0805C9F4F821B91098F73992762
:1003B000089581E294E00E94CD0121E0892B09F4A7
:1003C00020E0822F089580E090E0892B29F00E94A0
:1003D000D90181110C9400000895FC01A48DA80F8F
:1003E000B92FB11DA35ABF4F2C91848D90E0019677
:1003F0008F739927848FA689B7892C93A089B18997
:100400008C91837080648C93938D848D981306C037
:100410000288F389E02D80818F7D80830895EF929B
:10042000FF920F931F93CF93DF93EC0181E0888FAE
:100430009B8D8C8D98131AC0E889F989808185FF7E
:1004400015C09FB7F894EE89FF896083E889F98920
:1004500080818370806480839FBF81E090E0DF9122
:10046000CF911F910F91FF90EF900895F62E0B8D75
:1004700010E00F5F1F4F0F731127E02E8C8D8E1130
:100480000CC00FB607FCFACFE889F989808185FF97
:10049000F5CFCE010E94ED01F1CFEB8DEC0FFD2FDA
:1004A000F11DE35AFF4FF0829FB7F8940B8FEA8952
:1004B000FB8980818062CFCFCF93DF93EC01888D61
:1004C0008823B9F0AA89BB89E889F9898C9185FDCF
:1004D00003C0808186FD0DC00FB607FCF7CF8C915D
:1004E00085FFF2CF808185FFEDCFCE010E94ED0127
:1004F000E9CFDF91CF910895FC0183898B3051F4CE
:1005000080E492E4AFE0B0E0FB0184A395A3A6A34E
:10051000B7A3089580E894E8AEE1B0E0F5CFCF92BC
:10052000DF92EF92FF92CF93DF93DC011796CC918D
:100530001797D0E06111DC2F18962C91189730E0B6
:10054000220F331F2A573F4F50E040E0F9018591B9
:100550009491FC01F080BA0190E080E0EF2DEC2353
:10056000ED1310C04F5F5F4F1D96CD90DD90ED9065
:10057000FC9050976C157D058E059F0538F36FEF45
:100580007FEFCB01DF91CF91FF90EF90DF90CF9085
:1005900008958F929F92AF92BF92CF92DF92EF9287
:1005A000FF920F931F93CF93DF93CDB7DEB7C05465
:1005B000D1400FB6F894DEBF0FBECDBF2FB7F89471
:1005C0004091AF035091B0036091B1037091B203B9
:1005D0002FBFFC0101851285238534856A017B01CB
:1005E000C01AD10AE20AF30A97018601003D1740BA
:1005F00021053105B0F4FC018189C05CDE4F0FB6E6
:10060000F894DEBF0FBECDBFDF91CF911F910F9148
:10061000FF90EF90DF90CF90BF90AF909F908F9022
:1006200008958C01FC014187528763877487148287
:10063000138212821182108262E085810E94DB00A7
:1006400061E070E080E090E00E943C0161E0F80130
:1006500085810E94DB0060E0F80185810E948F00A7
:10066000F80186818551823028F58BE291E101976E
:10067000F1F762E0F80185810E94DB00F8018289D0
:1006800090E08230910538F0880F991F880F991FEC
:1006900005970197F1F7F89460E0C8010E948F0276
:1006A0006F3F7F4F8F4F9F4F61F4F801118A78940D
:1006B00080E0A3CF64E170E080E090E00E943C0124
:1006C000D8CF61E0C8010E948F026F3F7F4F8F4FEC
:1006D0009F4F59F3CE0101967C015E019FEBA91A51
:1006E0009EEFB90A670160E0C8010E948F02F6011F
:1006F000608371838283938361E0C8010E948F02CB
:10070000F6016483758386839783F8E0CF0ED11C4E
:10071000CA14DB0441F7789430E020E0F7018080D0
:100720009180A280B3804481558166817781FFEFFB
:100730008F169F06AF06BF0631F04F3F8FEF580769
:100740006807780719F4F801118AB2CFF90183E03C
:10075000F595E7958A95E1F7E00FF11F8081880F05
:1007600084169506A606B706F0F080832F5F3F4FEC
:10077000F8E0EF0EF11C2832310581F6F8014481D2
:1007800020818181280F3327331F8281280F311D5B
:100790008381820F932F911D99274817190699F687
:1007A00081E0818B2ACF8160E0CF20917603309168
:1007B00077032817390771F49091740380917503BA
:1007C000981741F0E0917403F0E0EC5CFC4F8081FD
:1007D00090E008958FEF9FEF08950895EF92FF92B4
:1007E0000F931F93CF93DF93DC015C96ED90FC9009
:1007F0005D97E114F10479F481E090E013969C9305
:100800008E93129790E080E0DF91CF911F910F912E
:10081000FF90EF9008955196ED91FC91529750966C
:100820008C915097982F90950FB75E962C915E976C
:10083000122F127021FD6095F8942081112319F177
:10084000282B2083E7012197F1F728E0462F50E07D
:10085000308160FF1AC0382B3083E7012197F1F710
:10086000BA0175956795215089F7112381F0808130
:10087000892380830FBF5C968D919C910197F1F73E
:1008800081E090E0C1CF2923DCCF3923E5CF9081EF
:10089000892BEFCF20917603309177032817390702
:1008A00061F4809175032091740390E0805C9F4F08
:1008B000821B91098F739927089590E080E0089535
:1008C000209176033091770328173907B9F4909176
:1008D000740380917503981789F0E0917403F0E038
:1008E000EC5CFC4F80812091740330E02F5F3F4F20
:1008F0002F7333272093740390E008958FEF9FEFB9
:100900000895E091C5048091C404E81730F4F0E044
:10091000E550FC4F808190E008958FEF9FEF0895A0
:100920009091C5048091C4042FEF3FEF981748F4CD
:10093000E92FF0E0E550FC4F208130E09F5F90937D
:10094000C504C90108958091C4049091C504891B10
:10095000990B089590E080E0089520911103260FEF
:100960003327331F21323105ECF420911B04FC01A5
:1009700090E080E0243069F082E00895A0911103B6
:100980002191AC014F505D4FA40FB52FB11D2C9399
:100990000196861798F380911103680F60931103F5
:1009A00080E0089581E00895CF92DF92EF92FF9268
:1009B0000F931F93CF93DF937C01CB018A0120918A
:1009C000B303222389F0EB016B01C40ED51ECC15B5
:1009D000DD0569F06991D701ED91FC910190F081FD
:1009E000E02DC7010995F3CF642F0E94AD04C80123
:1009F000DF91CF911F910F91FF90EF90DF90CF90FB
:100A00000895CF93DF931F92CDB7DEB7698320910E
:100A1000B3032223F9F02091C204203258F021E0E0
:100A200030E0FC013383228390E080E00F90DF917F
:100A3000CF9108958091C304E82FF0E0EC54FC4F6F
:100A4000998190838F5F8093C3048093C20481E077
:100A500090E0ECCF61E0CE0101960E94AD04F7CFAB
:100A600010921B0481E08093FA031092F50361E079
:100A700082E10E948F0061E083E10E948F00E9EB38
:100A8000F0E080818E7F808380818D7F808388E409
:100A90008093B80085E48093BC000895CF93DF93E2
:100AA00091E09093F0028823B9F0C091B800D09102
:100AB000BA008091BC008A7B8093BC0060E082E138
:100AC0000E948F0060E083E10E948F000E94300549
:100AD000D093BA00C093B800DF91CF910895CF9220
:100AE000DF92EF92FF920F931F93CF93DF93D82F54
:100AF000C62F613208F098C00E9417016B017C017B
:100B000080911B0481116BC081E080931B04809352
:100B1000FA039FEF9093F9031092F8039C0F9093C0
:100B2000F7038093F6038091F603DD0FD82BD09363
:100B3000F6038091F503813009F078C01092F50337
:100B40000E9417016B017C018091F6038093BB002A
:100B500080911D0490911E04A0911F04B091200467
:100B6000892B8A2B8B2BA1F00E94170100911D0469
:100B700010911E0420911F04309120046C197D09EE
:100B80008E099F09061717072807390708F448C078
:100B90008091BC0083FDD8CF85EC8093BC000E947F
:100BA00017016B017C0180911B04813009F440C066
:100BB0008091F8038C1710F4C091F803E5EDF3E091
:100BC000ABEFB3E080E08C1355C08C2FDF91CF9159
:100BD0001F910F91FF90EF90DF90CF90089580913B
:100BE0001D0490911E04A0911F04B0912004892B34
:100BF0008A2B8B2B09F484CF0E94170100911D04CE
:100C000010911E0420911F04309120046C197D095D
:100C10008E099F09061717072807390708F070CFB4
:100C200080911C040E944E05C0E0CFCF85EEB5CF69
:100C300080911D0490911E04A0911F04B091200486
:100C4000892B8A2B8B2B09F4AECF0E9417010091C0
:100C50001D0410911E0420911F04309120046C1972
:100C60007D098E099F09061717072807390708F01D
:100C70009ACFD6CF91919D938F5FA5CFCF92DF92E0
:100C8000EF92FF920F931F93CF93DF93D091C20403
:100C900081E0D13208F09CC0C091D4030E941701BA
:100CA0006B017C0180911B0481116CC082E08093F8
:100CB0001B0481E08093FA038FEF8093F903109275
:100CC000F803D093F703A4EBB3E0E5EDF3E080E0A5
:100CD000D8138DC01092F6038091F603CC0FC82B69
:100CE000C093F6038091F503813009F084C010921F
:100CF000F5030E9417016B017C018091F60380933C
:100D0000BB0080911D0490911E04A0911F04B0911E
:100D10002004892B8A2B8B2BA1F00E9417010091B4
:100D20001D0410911E0420911F04309120046C19A1
:100D30007D098E099F09061717072807390708F448
:100D400042C08091BC0083FDD8CF85EC8093BC006D
:100D50000E9417016B017C0180911B04823009F411
:100D60004CC08091F9038F3F09F469C08091F90369
:100D7000803209F466C08091F903803309F463C0BE
:100D800084E026C080911D0490911E04A0911F0450
:100D9000B0912004892B8A2B8B2B09F483CF0E94DE
:100DA000170100911D0410911E0420911F04309121
:100DB00020046C197D098E099F090617170728075B
:100DC000390708F06FCF80911C040E944E0585E022
:100DD0001092C3041092C2041092B303DF91CF911A
:100DE0001F910F91FF90EF90DF90CF9008959D910C
:100DF00091938F5F6DCF85EEA9CF80911D04909167
:100E00001E04A0911F04B0912004892B8A2B8B2BE8
:100E100009F4A2CF0E94170100911D0410911E0435
:100E200020911F04309120046C197D098E099F09BF
:100E3000061717072807390708F08ECFC4CF80E0C0
:100E4000C7CF82E0C5CF83E0C3CF08950895CF9385
:100E50008091F40491E09093B3038093D4031092B3
:100E6000C3041092C20465E086EC94E00E94010580
:100E70000E943E0664E08091F4040E946F05109287
:100E8000C5048093C40486EC94E00E949004982FDB
:100E900092959370CAE08F709C9F800D112480936F
:100EA000D50486EC94E00E94900487708093D60469
:100EB00086EC94E00E949004982F991F9927991F1F
:100EC0009093DF0484FB992790F98F709C9F800D8D
:100ED00011248093D70486EC94E00E949004982F0C
:100EE00092959F708F709C9F800D11248093D804E1
:100EF000CF9108951F93CF93DF93C2EDD4E08AA1E1
:100F000091E09093B3038093D4031092C3041092A2
:100F1000C20460E086EC94E00E9401050E943E0657
:100F200065E08AA10E946F051092C5048093C404F5
:100F300086EC94E00E9490048B8786EC94E00E94FB
:100F400090048C8786EC94E00E949004982F9295F0
:100F500097701AE08F70919F800D11248A8386EC20
:100F600094E00E949004982F929597708F70919FB3
:100F7000800D1124898386EC94E00E949004982FC0
:100F8000929593708F70919F800D11248883DF91CB
:100F9000CF911F910895FB0101900020E9F731974F
:100FA000AF01461B570BDC01ED91FC910280F381F0
:100FB000E02D09948F929F92AF92BF92EF92FF9291
:100FC0000F931F93CF93DF93CDB7DEB7A1970FB6E3
:100FD000F894DEBF0FBECDBF7C01FA01CB0119A290
:100FE000223008F42AE08E010F5D1F4F822E912CD3
:100FF000B12CA12CBF01A50194010E94B315F901E8
:10100000CA016A300CF5605DD8016E938D01232B07
:10101000242B252B79F790E080E0109721F0BD017B
:10102000C7010E94CB07A1960FB6F894DEBF0FBE92
:10103000CDBFDF91CF911F910F91FF90EF90BF90A7
:10104000AF909F908F900895695CDECF4F925F9232
:101050006F927F928F929F92AF92BF92CF92DF92C8
:10106000EF92FF92CF93DF93EC016A017B01AB011A
:101070009601CB01B6010E94AE1564E771E08111C3
:101080001AC046015701E894B7F82FEF3FEF4FE73A
:101090005FE7C501B4010E94AE15811126C02FEF94
:1010A0003FEF4FE75FE7C501B4010E94AB1318168D
:1010B000E4F468E771E0CE010E94CB077C0160E8B0
:1010C00071E0CE010E94CB078E0D9F1DDF91CF9165
:1010D000FF90EF90DF90CF90BF90AF909F908F9058
:1010E0007F906F905F904F9008952FEF3FEF4FE705
:1010F0005FE4C701B6010E94A91518161CF46CE73D
:1011000071E0D9CF2FEF3FEF4FE75FECC701B6019A
:101110000E94AB1387FDF3CF20E030E0A901C701A7
:10112000B6010E94AB13B12CA12C87FF0DC0E88142
:10113000F9810190F081E02D6DE2CE0109955C010D
:10114000F7FAF094F7F8F0942AE037ED43EA5BE31E
:10115000C701B6010E9407152B013C010E947A15B8
:101160006B017C010E94B0139B01AC01C301B20171
:101170000E9406152B013C012AE0B701A601CE0111
:101180000E94DA077C01EA0CFB1CE881F9810190DE
:10119000F081E02D6EE2CE010995E80EF91E20E007
:1011A00030E040E251E4C301B2010E9411142B016E
:1011B0003C010E947A154B01B12CA12C2AE0B5010B
:1011C000A401CE010E94DA07E80EF91EC501B401A0
:1011D0000E94B0139B01AC01C301B2010E9406152D
:1011E00020E030E040E251E40E9411140E947A15A0
:1011F000AB0170E060E02AE0CE010E94DA07E80E61
:10120000F91E5DCF0F931F93CF93DF93EC010E94E4
:10121000CB078C0160E871E0CE010E94CB07800F04
:10122000911FDF91CF911F910F910895CF92DF927F
:10123000EF92FF920F931F93CF93DF93EB01FB018C
:10124000349620E2DF011D922A95E9F744E250E04E
:1012500060E070E0488359836A837B83FC014581A9
:101260005681678170854C835D836E837F834CE0FC
:1012700050E060E070E0488759876A877B872FB726
:10128000F8944091AF035091B0036091B103709115
:10129000B2032FBF488B598B6A8B7B8B03811481E0
:1012A000C8010E94C902882349F0F80186818B3069
:1012B00028F08D3040F08551823070F160E070E0B0
:1012C00080EC9FE71BC0618170E090E080E00E94AD
:1012D000B2132DEC3CEC4CEC5DE30E9411146B015D
:1012E0007C01F801608170E090E080E00E94B21320
:1012F0009B01AC01C701B6010E9407156C8B7D8B69
:101300008E8B9F8B81E0DF91CF911F910F91FF908A
:10131000EF90DF90CF9008956081718176276727E5
:10132000762790E080E00E94B0132DEC3CEC4CEC72
:101330005DE30E941114E2CF8F929F92AF92BF9211
:10134000EF92FF921F93CF93DF93EB01FB01349653
:1013500020E2DF011D922A95E9F744E250E060E0C7
:1013600070E0488359836A837B83FC014581568101
:10137000678170854C835D836E837F834DE050E091
:1013800060E070E0488759876A877B872FB7F894B9
:101390004091AF035091B0036091B1037091B203DB
:1013A0002FBF488B598B6A8B7B8BE380F480C701FE
:1013B0000E94C902882341F0F70186818C3009F42C
:1013C00055C038F48B30E1F060E070E080EC9FE7CE
:1013D0003EC085518230C0F71281612F70E0762FB8
:1013E000662766277F778381682B90E080E00E94E4
:1013F000B0132DEC3CEC4CEC5DE30E94111451C099
:10140000628170E090E080E00E94B0134B015C01CB
:10141000F701138117FF0AC0AC019B0160E070E087
:1014200080E89FEB0E9406154B015C011F70612F45
:1014300070E090E080E00E94B2132DEC3CEC4CECAC
:101440005DE30E941114A50194010E9407156C8BA5
:101450007D8B8E8B9F8B81E0DF91CF911F91FF90D1
:10146000EF90BF90AF909F908F9008951281612F61
:1014700070E090E080E00E94B0134B015C01F70146
:1014800063816F7070E090E080E00E94B2132DECF9
:101490003CEC4CEC5DE30E941114A50194010E9408
:1014A000071517FFD4CF9058D2CFCF93DF93EB011E
:1014B000FC0183894BE050E069E871E08C30C1F0B9
:1014C00058F44BE050E063E871E08B3089F04BE07A
:1014D00050E06BE971E00CC04BE050E06FE871E068
:1014E000853131F04BE050E065E971E0863179F704
:1014F000CE010E941F171B86DF91CF9108950F9395
:101500001F93CF93DF938C01EB0188E2DB011D92E7
:101510008A95E9F7F801838194810E94550A81E058
:1015200090E0A0E0B0E08C879D87AE87BF87F80190
:1015300085819681A781B085888B998BAA8BBB8B7F
:101540008CE090E0A0E0B0E08C8B9D8BAE8BBF8BED
:10155000BE01838194810E947C02D8011396ED9193
:10156000FC9183898C3009F441C078F48B3009F107
:10157000188E198E1A8E1B8E1C8E1D8E1E8E1F8E1F
:1015800018A219A21AA21BA22CC08551823080F782
:1015900080E090E0A8ECB2E4888F998FAA8FBB8F8F
:1015A0001C8E1D8E1E8E1F8E8DEC9CECACECBDE354
:1015B00014C080E090E0A0EAB2E4888F998FAA8FEF
:1015C000BB8F80E090E0A0EAB1E48C8F9D8FAE8F5E
:1015D000BF8F80E090E0A0EAB0E488A399A3AAA31B
:1015E000BBA3DF91CF911F910F91089580E090E010
:1015F000AEEBB2E4E2CF0F931F93CF93DF938C0156
:10160000EB0188E2DB011D928A95E9F7F8018381FD
:1016100094810E94550A81E090E0A0E0B0E08C87C0
:101620009D87AE87BF87F80185819681A781B085A8
:10163000888B998BAA8BBB8B8DE090E0A0E0B0E00B
:101640008C8B9D8BAE8BBF8BBE01838194810E945E
:101650007C02D8011396ED91FC9183898C3091F135
:1016600078F48B30B1F0188E198E1A8E1B8E1C8E6A
:101670001D8E1E8E1F8E18A219A21AA21BA21DC09B
:101680008531A9F1863179F780E090E0AAEFB2E4E4
:1016900032C080E090E0A8E4B2E4888F998FAA8FEE
:1016A000BB8F1C8E1D8E1E8E1F8E80E090E0A0E0F2
:1016B000B0E488A399A3AAA3BBA3DF91CF911F9104
:1016C0000F91089580E090E0A0E7B2E4888F998FB1
:1016D000AA8FBB8F80E090E0A0EAB1EC8C8F9D8F49
:1016E000AE8FBF8F80E090E0A0E0BFE3E2CF80E06C
:1016F00090E0A0EAB2E4888F998FAA8FBB8F80E038
:1017000090E0A0E2B2EC8C8F9D8FAE8FBF8F8DECFE
:101710009CECACECBDE3CDCF85ED8093BC0080911B
:101720001D0490911E04A0911F04B09120040796FF
:10173000A11DB11D23E0B695A795979587952A958C
:10174000D1F72091BC0024FD03C010921B04089522
:1017500040911D0450911E0460911F04709120045B
:10176000452B462B472B69F30097A105B10541F0A6
:101770002AE22A95F1F700C00197A109B109E1CF4A
:1017800080911C040C944E050C9496160C9496169D
:101790001F920F920FB60F9211242F933F938F93A6
:1017A0009F93AF93BF938091AF039091B003A091AB
:1017B000B103B091B2033091AA0323E0230F2D3778
:1017C00058F50196A11DB11D2093AA038093AF0384
:1017D0009093B003A093B103B093B2038091AB0395
:1017E0009091AC03A091AD03B091AE030196A11D01
:1017F000B11D8093AB039093AC03A093AD03B09362
:10180000AE03BF91AF919F918F913F912F910F9018
:101810000FBE0F901F90189526E8230F0296A11D6A
:10182000B11DD2CF1F920F920FB60F9211242F939A
:101830003F934F935F936F937F938F939F93AF9358
:10184000BF93EF93FF9381E294E00E94ED01FF913B
:10185000EF91BF91AF919F918F917F916F915F9128
:101860004F913F912F910F900FBE0F901F901895A1
:101870001F920F920FB60F9211242F938F939F9365
:10188000EF93FF93E0913104F09132048081E09175
:101890003704F091380482FD1BC0908180913A0496
:1018A0008F5F8F7320913B04821741F0E0913A04DF
:1018B000F0E0EF5DFB4F958F80933A04FF91EF913D
:1018C0009F918F912F910F900FBE0F901F901895A1
:1018D0008081F4CF1F920F920FB60F9211242F9395
:1018E0003F934F935F936F937F938F939F93AF93A8
:1018F000BF93EF93FF93E0917603F09177033097D6
:1019000049F0A685B7858585968D91FF14C09C9179
:101910008923A1F4FF91EF91BF91AF919F918F9196
:101920007F916F915F914F913F912F910F900FBEDB
:101930000F901F9018959C91892361F7A389B48912
:101940009C918589809589238C93868997890197B5
:10195000F1F7608D718DA685B785558538E020E05B
:10196000CB010197F1F7822F90E095958795282F6D
:101970004C91452309F02068315091F7868D81FD07
:1019800020958091750390E001968F73992730918F
:101990007403381799F0A0917503B0E0AC5CBC4FAC
:1019A0002C9380937503828D938D0197F1F7A38912
:1019B000B4898C919589892B8C93ACCF868D81606D
:1019C000868FF1CF1F920F920FB60F9211242F9393
:1019D0003F934F935F936F937F938F939F93AF93B7
:1019E000BF93EF93FF938091B900887F803609F40D
:1019F0004AC0F0F5883209F4A7C018F5803109F41F
:101A00009BC0B8F4882309F4F9C0883009F494C065
:101A1000FF91EF91BF91AF919F918F917F916F91C6
:101A20005F914F913F912F910F900FBE0F901F909C
:101A30001895883109F488C0803251F78093F903F2
:101A400014C0803409F49DC040F48033B9F3883366
:101A5000F9F68093F90385ECB0C0803509F485C0B0
:101A6000883509F496C0883499F60E948C0BD0CF43
:101A7000883909F48CC038F5883729F050F4883655
:101A800011F0803729F683E080931B041092330312
:101A900057C0883809F47BC0803919F0803809F0C4
:101AA000B7CF80913303803208F071C0E0913303E7
:101AB00081E08E0F809333038091BB00F0E0ED5EF8
:101AC000FC4F80833DC0803B39F0E0F4803A09F45C
:101AD00079C0883A09F09CCF84E080931B0410926F
:101AE000120310921103E091C004F091C104099512
:101AF0008091110381110FC081E080931103109236
:101B0000F10209C0803C09F4A6CF883C09F4A3CFB8
:101B1000883B09F07DCFE091120381E08E0F809326
:101B20001203F0E0EF50FD4F80818093BB00909155
:101B300012038091110329C08091F6038093BB00AA
:101B400085EC8093BC0064CF9091F8038091F703FB
:101B5000981758F5E091F80381E08E0F8093F80311
:101B6000F0E0EB52FC4F8081E9CFE091F80381E097
:101B70008E0F8093F8038091BB00F0E0EB52FC4F96
:101B800080839091F8038091F7039817C8F285E855
:101B9000D8CFE091F80381E08E0F8093F803809115
:101BA000BB00F0E0EB52FC4F80838091FA0381117F
:101BB0005CCF81E08093F50384EA8093BC001092AF
:101BC0001B0426CF85EC8093BC0010921B048091EF
:101BD0003303803230F4E0913303F0E0ED5EFC4FEC
:101BE00010826091330370E0E091BE04F091BF0475
:101BF00083E193E00995109233030ACF1092F90321
:101C000034CFCF92DF92EF92FF9210922404109281
:101C1000230488EE93E0A0E0B0E080932504909345
:101C20002604A0932704B093280426E231E03093E1
:101C300022042093210425EC30E030932E042093DD
:101C40002D0424EC30E03093300420932F0420EC5A
:101C500030E0309332042093310421EC30E03093B3
:101C600034042093330422EC30E030933604209384
:101C7000350426EC30E0309338042093370410927A
:101C80003A0410923B0410923C0410923D041092CE
:101C9000C9041092C8048093CA049093CB04A09303
:101CA000CC04B093CD0428E331E03093C7042093F3
:101CB000C60425E135E047E040931A0546E140932C
:101CC0001B05E5EBF0E0E491E0931C05E1EAF0E0B0
:101CD000E491E0931D0550E8C52E5EE3D52EE12C7E
:101CE000F12CC0922205D0922305E0922405F092B7
:101CF0002505409328054AE651E050932A05409374
:101D0000290530932D0520932C054FEF5FEFBA0185
:101D100040932E0550932F05609330057093310545
:101D2000ECE5F1E0F0933305E093320530933605AE
:101D30002093350540933705509338056093390556
:101D400070933A051092F9041092F8048093FA0403
:101D50009093FB04A093FC04B093FD048AE491E00B
:101D60009093F7048093F60410920D0510920C05E1
:101D700010920F0510920E05109211051092100589
:101D80001092130510921205609114056E7F6D7FFD
:101D9000609314056695617081E0682783E00E9476
:101DA0008F0061E083E00E94DB00E1EBF0E0E49172
:101DB000E0930605EDE9F0E0E491F0E0EE0FFF1F9F
:101DC000E057FF4F85919491909308058093070504
:101DD00060E082E00E94DB008091140581FD04C078
:101DE00061E082E00E948F0082E080930205E0EBD8
:101DF000F0E0E491E0930305ECE9F0E0E491F0E039
:101E0000EE0FFF1FEA57FF4F8591949190930505C0
:101E1000809304051092C5041092C4041092C30468
:101E20001092C2040E9430058DE890E09093C104A6
:101E30008093C0048EE890E09093BF048093BE042A
:101E400081E590E09093F5048093F404FF90EF9087
:101E5000DF90CF900895CF93DF93CDB7DEB7CC5608
:101E6000D1090FB6F894DEBF0FBECDBF789484B50C
:101E7000826084BD84B5816084BD85B5826085BD86
:101E800085B5816085BD80916E00816080936E0014
:101E90001092810080918100826080938100809106
:101EA00081008160809381008091800081608093B7
:101EB00080008091B10084608093B1008091B00077
:101EC00081608093B00080917A00846080937A0072
:101ED00080917A00826080937A0080917A0081609C
:101EE00080937A0080917A00806880937A001092C3
:101EF000C100E0913104F091320482E08083E091EE
:101F00002D04F0912E041082E0912F04F091300402
:101F100083E3808310923904E0913504F091360414
:101F200086E08083E0913304F09134048081806105
:101F30008083E0913304F091340480818860808351
:101F4000E0913304F0913404808180688083E091D3
:101F50003304F091340480818F7D808310921105C9
:101F60001092100510920F0510920E0510920D059B
:101F700010920C0585E690E090931305809312056E
:101F800090910205963108F047C021E230E030938D
:101F90000D0520930C0523E630E030930F052093C8
:101FA0000E0522E430E030931105209310052091B6
:101FB000680084E0983048F031E09E3008F430E06A
:101FC00081E001C0880F3A95EAF7822B8093680080
:101FD0002DE630E0983050F02BE630E09E3030F0C7
:101FE0002CE630E0963110F030E020E030930A0526
:101FF00020930905292F30E0983008F07EC281E057
:1020000001C0880F9A95EAF780930B05809112051D
:10201000909113050197F1F78091100590911105AA
:10202000892B49F1E0917603F091770324E0E63FB4
:10203000F20709F1309739F0A389B4899C91858919
:10204000809589238C93809114058E7F809314054D
:10205000109275031092740386EF94E090937703C7
:1020600080937603E0910905F0910A0580819091B3
:102070000B05892B808362E080911A050E94DB00AA
:102080002FB7F8948091AF039091B003A091B10362
:10209000B091B2032FBF805D9740A109B109809331
:1020A0001E0590931F05A0932005B093210587E39B
:1020B000809327051092C5041092C4041092C304A3
:1020C0001092C2040E9430058DE890E09093C10404
:1020D0008093C0048EE890E09093BF048093BE0488
:1020E00080912B0564968FAF64978AE691E06396A2
:1020F0009FAF8EAF639780912C0590912D056696CA
:102100009FAF8EAF669780912E0590912F05A0917D
:102110003005B09131056A968CAF9DAFAEAFBFAFC1
:102120006A978E010F5F1F4FB801CE018F5A9F4FE4
:102130000E94FB0A8091340564968FAF64978CE50A
:1021400091E063969FAF8EAF639780913505909134
:10215000360566969FAF8EAF669780913705909152
:102160003805A0913905B0913A056A968CAF9DAFBC
:10217000AEAFBFAF6A97B801CE018F5A9F4F0E9492
:102180007F0A6DA17EA18FA198A528EE33E040E0E3
:1021900050E00E94D5153093A9032093A8038AE646
:1021A000282E81E0382E9924939498E0892E2CE5EE
:1021B000A22E21E0B22E6091A8037091A903072EF0
:1021C000000C880B990B0E943C018CE1E6E0F1E0E9
:1021D000DE01AF5ABF4F01900D928A95E1F70E9440
:1021E0007A077090D3040E947A07C090D2040E94AC
:1021F0002707D090D8040E942707E090D7040E94B8
:102200002707F090D5040E9427071F927F921F9204
:10221000CF921F92DF921F92EF921F92FF928091B6
:10222000D60434E0839FC001112421E530E02C0F57
:102230003D1F820F931F9F938F9380EA91E09F939E
:102240008F931F930F930E942E17B80181E294E0A1
:102250000E940209B80186EF94E00E940209809171
:102260002B058B833A82298280912C0590912D0534
:102270009D838C8380912E0590912F05A091300530
:10228000B09131058E839F83A887B98764E873E096
:10229000C8010E949C0960919803709199038091F4
:1022A0009A0390919B0360937A0370937B038093CE
:1022B0007C0390937D030FB6F894DEBF0FBECDBFB5
:1022C0009B01AC010E94AE15882309F423C166EC82
:1022D00071E081E294E00E940209C0907A03D090FC
:1022E0007B03E0907C03F0907D0320E030E040E051
:1022F00051E4C701B6010E94AB1387FF30C1809142
:102300007903811102C090927903C701B6010E943E
:1023100073152B01072E000C880B990B0E94B2132A
:102320009B01AC01C701B6010E94061520E030E018
:1023300048EC52E40E9411149F770E9473157F931A
:102340006F935F924F928EEE91E09F938F931F93C6
:102350000F930E942E170FB6F894DEBF0FBECDBFAD
:10236000B80181E294E00E940209B80186EF94E08E
:102370000E940209809134058B83BA82A9828091E0
:102380003505909136059D838C838091370590911A
:102390003805A0913905B0913A058E839F83A887AF
:1023A000B98764E873E0C8010E9416096091980338
:1023B0007091990380919A0390919B03609380039D
:1023C0007093810380938203909383039B01AC01FC
:1023D0000E94AE15882309F43BC169E872E081E2EE
:1023E00094E00E940209C0908003D0908103E090A5
:1023F0008203F090830320E030E040EA52E4C7011A
:10240000B6010E94AB1387FF48C180917F03811101
:1024100002C090927F0380917E03811102C090924E
:102420007E03C701B6010E9473152B01072E000C15
:10243000880B990B0E94B2139B01AC01C701B60136
:102440000E94061520E030E048EC52E40E9411148E
:102450009F770E9473157F936F935F924F9289EAE3
:1024600092E09F938F931F930F930E942E170FB6A6
:10247000F894DEBF0FBECDBFB80181E294E00E94A8
:102480000209B80186EF94E00E94020986EF94E009
:102490000E944A04892B49F086EF94E00E94600470
:1024A000682F81E294E00E940F0281E294E00E9492
:1024B000CD01892B49F081E294E00E94AB01682FA5
:1024C00086EF94E00E94EE0360E871E081E294E020
:1024D0000E94CB0763E070E080E090E00E943C0146
:1024E00080E090E0892B09F466CE0E94D901882310
:1024F00009F455CE0E94000052CE9E3040F4285080
:10250000310981E001C0880F2A95EAF77DCD2E5070
:102510003109F7CF60EE71E081E294E00E94CB07D1
:1025200040917A0350917B0360917C0370917D030D
:1025300081E294E00E94260860EE71E086EF94E06C
:102540000E94CB0740917A0350917B0360917C03FA
:1025500070917D0386EF94E00E942608BECE20E0B5
:1025600030E040E051E4C701B6010E94AB13811195
:102570000EC0809178038111109278031F921F92F0
:102580001F928F9220E232E03F932F93E0CE20E023
:1025900030E040E651E4C701B6010E94A91587FD6D
:1025A00030C020E030E040E751E4C701B6010E94AE
:1025B000AB1387FF26C080917903811110927903B4
:1025C000C701B6010E9473152B01072E000C880B62
:1025D000990B0E94B2139B01AC01C701B6010E9486
:1025E000061520E030E048EC52E40E9411149F7779
:1025F0000E9473157F936F935F924F928BE392E0EB
:10260000A4CE80917803811102C090927803C70113
:10261000B6010E9473152B01072E000C880B990B35
:102620000E94B2139B01AC01C701B6010E940615BE
:1026300020E030E048EC52E40E9411149F770E94A1
:1026400073157F936F935F924F9227E532E09CCF93
:102650006FE972E081E294E00E94CB074091800331
:1026600050918103609182037091830381E294E031
:102670000E9426086FE972E086EF94E00E94CB0783
:102680004091800350918103609182037091830394
:1026900086EF94E00E942608A6CE20E030E040EAD3
:1026A00052E4C701B6010E94A91587FDE5CE20E0DE
:1026B00030E044EB52E4C701B6010E94AB13181698
:1026C0000CF4DACE80917F03811110927F03809108
:1026D0007E03811110927E03C701B6010E9473151B
:1026E0002B01072E000C880B990B0E94B2139B0143
:1026F000AC01C701B6010E94061520E030E048ECAD
:1027000052E40E9411149F770E9473157F936F9378
:102710005F924F9227ED32E03F932F93A4CE8AE44D
:1027200091E09093F7048093F60480917603909162
:102730007703865F944071F4E0910905F0910A05F2
:10274000908180910B058095892380831092770377
:102750001092760308950E94ED1308F481E0089525
:10276000E89409C097FB3EF490958095709561952B
:102770007F4F8F4F9F4F9923A9F0F92F96E9BB27E1
:102780009395F695879577956795B795F111F8CF5D
:10279000FAF4BB0F11F460FF1BC06F5F7F4F8F4FC8
:1027A0009F4F16C0882311F096E911C0772321F0BE
:1027B0009EE8872F762F05C0662371F096E8862F56
:1027C00070E060E02AF09A95660F771F881FDAF7AD
:1027D000880F9695879597F90895990F0008550FDA
:1027E000AA0BE0E8FEEF16161706E807F907C0F097
:1027F00012161306E407F50798F0621B730B840B9F
:10280000950B39F40A2661F0232B242B252B21F478
:1028100008950A2609F4A140A6958FEF811D811D18
:1028200008950E9424140C9495140E94871438F083
:102830000E948E1420F0952311F00C947E140C94B9
:10284000841411240C94C9140E94A61470F3959F4B
:10285000C1F3950F50E0551F629FF001729FBB2797
:10286000F00DB11D639FAA27F00DB11DAA1F649F33
:102870006627B00DA11D661F829F2227B00DA11DE6
:10288000621F739FB00DA11D621F839FA00D611D6C
:10289000221F749F3327A00D611D231F849F600D8D
:1028A000211D822F762F6A2F11249F5750409AF0B6
:1028B000F1F088234AF0EE0FFF1FBB1F661F771F42
:1028C000881F91505040A9F79E3F510580F00C940D
:1028D0007E140C94C9145F3FE4F3983ED4F38695BC
:1028E00077956795B795F795E7959F5FC1F7FE2BAD
:1028F000880F911D9695879597F9089597F99F6789
:1029000080E870E060E008959FEF80EC0895002477
:102910000A941616170618060906089500240A9444
:1029200012161306140605060895092E0394000CCA
:1029300011F4882352F0BB0F40F4BF2B11F460FF59
:1029400004C06F5F7F4F8F4F9F4F089557FD905882
:10295000440F551F59F05F3F71F04795880F97FB63
:10296000991F61F09F3F79F087950895121613061D
:102970001406551FF2CF4695F1DF08C0161617064C
:102980001806991FF1CF8695710561050894089581
:10299000E894BB2766277727CB0197F908952F92F4
:1029A0003F924F925F926F927F928F929F92AF92DF
:1029B000BF92CF92DF92EF92FF920F931F93CF932C
:1029C000DF93CDB7DEB7CA1BDB0B0FB6F894DEBFC3
:1029D0000FBECDBF09942A88398848885F846E84E9
:1029E0007D848C849B84AA84B984C884DF80EE8033
:1029F000FD800C811B81AA81B981CE0FD11D0FB63C
:102A0000F894DEBF0FBECDBFED0108955058BB272F
:102A1000AA270E941E150C9495140E94871438F062
:102A20000E948E1420F039F49F3F19F426F40C9480
:102A300084140EF4E095E7FB0C947E14E92F0E94B9
:102A4000A61458F3BA17620773078407950720F096
:102A500079F4A6F50C94C8140EF4E0950B2EBA2F59
:102A6000A02D0B01B90190010C01CA01A001112494
:102A7000FF27591B99F0593F50F4503E68F11A1640
:102A8000F040A22F232F342F4427585FF3CF4695D1
:102A900037952795A795F0405395C9F77EF41F16F3
:102AA000BA0B620B730B840BBAF09150A1F0FF0FBD
:102AB000BB1F661F771F881FC2F70EC0BA0F621FA9
:102AC000731F841F48F4879577956795B795F79599
:102AD0009E3F08F0B0CF9395880F08F09927EE0F2E
:102AE0009795879508950E947A156894B1110C9472
:102AF000C91408950E94AE1488F09F5798F0B92F1A
:102B00009927B751B0F0E1F0660F771F881F991F22
:102B10001AF0BA95C9F714C0B13091F00E94C814E8
:102B2000B1E008950C94C814672F782F8827B85FF8
:102B300039F0B93FCCF3869577956795B395D9F77A
:102B40003EF490958095709561957F4F8F4F9F4F84
:102B500008950E94ED1308F48FEF08950E94ED137D
:102B6000880B990B0895A1E21A2EAA1BBB1BFD012D
:102B70000DC0AA1FBB1FEE1FFF1FA217B307E4075C
:102B8000F50720F0A21BB30BE40BF50B661F771FB4
:102B9000881F991F1A9469F7609570958095909594
:102BA0009B01AC01BD01CF010895052E97FB1EF4DA
:102BB00000940E94EC1557FD07D00E94B31507FC46
:102BC00003D04EF40C94EC1550954095309521951A
:102BD0003F4F4F4F5F4F0895909580957095619549
:102BE0007F4F8F4F9F4F0895EE0FFF1F0590F49179
:102BF000E02D09940F931F93CF93DF9382309105BB
:102C000010F482E090E0E0913D05F0913E0530E067
:102C100020E0B0E0A0E0309799F42115310509F4E7
:102C20004AC0281B390B24303105D8F58A819B8195
:102C30006115710589F1FB0193838283FE0111C047
:102C4000408151810281138148175907E0F04817EC
:102C5000590799F4109761F012960C9312971396F6
:102C60001C933296CF01DF91CF911F910F91089560
:102C700000933D0510933E05F4CF2115310551F029
:102C80004217530738F0A901DB019A01BD01DF01AA
:102C9000F801C1CFEF01F9CF90933E0580933D0538
:102CA000CDCFFE01E20FF31F8193919322503109A2
:102CB00039832883D7CF20913B0530913C05232BC6
:102CC00041F4209102013091030130933C0520939F
:102CD0003B0520910001309101012115310541F49E
:102CE0002DB73EB74091040150910501241B350BCF
:102CF000E0913B05F0913C05E217F307A0F42E1B91
:102D00003F0B2817390778F0AC014E5F5F4F24174F
:102D1000350748F04E0F5F1F50933C0540933B052D
:102D2000819391939FCFF0E0E0E09CCFCF93DF932E
:102D30000097E9F0FC01329713821282A0913D05C1
:102D4000B0913E05ED0130E020E01097A1F4208124
:102D50003181820F931F20913B0530913C0528174C
:102D6000390709F061C0F0933C05E0933B05DF9122
:102D7000CF910895EA01CE17DF07E8F54A815B811C
:102D80009E0141155105B1F7E901FB83EA834991A1
:102D90005991C40FD51FEC17FD0761F48081918113
:102DA0000296840F951FE90199838883828193811C
:102DB0009B838A83F0E0E0E012968D919C911397BB
:102DC0000097B9F52D913C911197CD010296820F94
:102DD000931F20913B0530913C052817390739F6A0
:102DE000309751F510923E0510923D05B0933C0589
:102DF000A0933B05BCCFD383C28340815181840F14
:102E0000951FC817D90761F44E5F5F4F888199817C
:102E1000480F591F518340838A819B81938382830A
:102E20002115310509F0B0CFF0933E05E0933D0543
:102E30009ECFFD01DC01C0CF13821282D7CFFB01F0
:102E4000DC014150504048F001900D920020C9F73C
:102E500001C01D9241505040E0F70895AEE0B0E04F
:102E6000E4E3F7E10C94DD140D891E8986E08C8380
:102E70001A8309838FEF9FE79E838D83AE01475EA0
:102E80005F4F6F89788DCE0101960E9451172F8177
:102E90003885020F131FF80110822E96E4E00C947F
:102EA000F914ABE0B0E0E7E5F7E10C94CF147C0156
:102EB0003B018A01FC0117821682838181FFC8C110
:102EC000CE0101965C01F7019381F30193FD859199
:102ED00093FF81913F01882309F453C1853239F46E
:102EE00093FD859193FF81913F01853229F4B701CC
:102EF00090E00E944119E7CF912C212C312CFFE169
:102F0000F31538F08B3211F190F4803209F18332ED
:102F100029F137FC3CC020ED280F2A3050F536FE51
:102F200020C08AE0989E200D1124922E06C08D327A
:102F300091F0803371F7689430F8F30193FD859137
:102F400093FF81913F018111DACF21C0689431F85C
:102F5000689432F8F2CF689433F8EFCF689434F87D
:102F6000ECCFEAE02E9E200D1124222E689435F835
:102F7000E4CF8E3229F436FC04C1689436F8DDCFF4
:102F80008C3619F4689437F8D8CF8836B1F2982F78
:102F90009F7D95549330E0F08336A1F18337C1F1E2
:102FA000833509F063C02801F2E04F0E511CF8018F
:102FB000C080D180692D70E036FC02C06FEF7FEFDA
:102FC000C6010E942B194C01689437F882010AC08F
:102FD0000C5F1F4FFFE3F98388248394912C6501D4
:102FE000E89437F833FE2DC0522C8114910471F50A
:102FF000552009F468CFB70180E290E00E944119A2
:103000005A94F6CFF801808189830E5F1F4FE4CF79
:103010002801F2E04F0E511CF801C080D180692DCB
:1030200070E036FC02C06FEF7FEFC6010E943619D8
:103030004C018201D5CFB70180E290E00E94411996
:103040002A942814190409F0B0F7CECFF60137FC02
:10305000859137FE81916F01B70190E00E9441197F
:1030600051105A94F1E08F1A9108BFCF843619F0AD
:10307000893609F077C0F80137FE6BC06081718135
:10308000828193810C5F1F4FF32DFF763F2E97FFB8
:1030900009C090958095709561957F4F8F4F9F4F98
:1030A000689437F82AE030E0A5010E947119C82E13
:1030B000CA188C2C432C36FE0CC0E89440F8C91476
:1030C00040F434FE05C032FC03C0F32DFE7E4F2ECB
:1030D000892C44FE95C0FE01EC0DF11D80818033EA
:1030E00009F087C0242D297E422E842D8870582E09
:1030F00043FC95C040FE8FC09C2C821418F42C0C0D
:10310000922C981844FE91C0B70180E390E00E9491
:10311000411942FE09C088E790E041FE02C088E5FF
:1031200090E0B7010E944119C91408F48AC0CA94FA
:10313000D12C9FEFC91AD90ACA0CDB1CF601829167
:103140006F01B70190E00E944119AC14BD04B1F7C2
:103150004FCF60817181072E000C880B990B0E5F99
:103160001F4F92CFD32CE894D4F82AE030E0853773
:1031700039F1232D297FD22E8F3601F148F488357D
:10318000A9F0F701868197812B96E2E10C94EB146C
:10319000803749F08837A9F7D4FE02C06894D2F886
:1031A00020E130E00DC06894D4F8F6CF34FE03C0BF
:1031B000822F8660D82E20E132E002C028E030E085
:1031C000F801D7FE0FC060817181828193810C5F0D
:1031D0001F4FA5010E947119C82ECA183D2CE894F2
:1031E00037F867CF6081718190E080E00E5F1F4FFC
:1031F000F0CF42FC02C0839478CF8394839475CF40
:10320000842D867809F471CFF6CFB70180E290E083
:103210000E94411983948214C0F3512C73CF522C15
:103220005818821408F46ECFF8CF842D867809F4EC
:103230007BCF8BE241FE80E247FC8DE2B70190E05C
:1032400071CFB70180E390E00E9441199A946CCF4E
:103250008FEF9FEF99CFFC010590615070400110F6
:10326000D8F7809590958E0F9F1F0895FC016150AF
:10327000704001900110D8F7809590958E0F9F1F98
:1032800008950F931F93CF93DF93182F092FEB010E
:103290008B8181FD09C01FEF0FEF812F902FDF91F0
:1032A000CF911F910F91089582FF14C02E813F810D
:1032B0008C819D81281739073CF4E881F981CF0181
:1032C00001969983888310838E819F8101969F83C5
:1032D0008E83E3CFE885F985812F0995892BA1F3AA
:1032E000DACFFA01AA27283051F1203181F1E89490
:1032F0006F936E7F6E5F7F4F8F4F9F4FAF4FB1E0E9
:103300003ED0B4E03CD0670F781F891F9A1FA11DE3
:10331000680F791F8A1F911DA11D6A0F711D811DE4
:10332000911DA11D20D009F468943F912AE0269FA9
:1033300011243019305D3193DEF6CF010895462F08
:103340004770405D4193B3E00FD0C9F7F6CF462FE9
:103350004F70405D4A3318F0495D31FD4052419352
:1033600002D0A9F7EACFB4E0A6959795879577950F
:103370006795BA95C9F700976105710508959B0196
:10338000AC010A2E06945795479537952795BA951F
:10339000C9F7620F731F841F951FA01D089510E0C9
:1033A000C2E6D0E004C0FE010E94F4152196C336A7
:0833B000D107C9F7F894FFCF23
:1033B80000003F058000444F4D00534547005445E9
:1033C8005200515541005155490053455800534149
:1033D8004200000000000F026F019C015C02CD0159
:1033E800AB01BF01000000000105D404AA04ED03ED
:1033F800A3049004810400000000EE036F01AA04F6
:10340800ED034A046004D503000000002507C60B3D
:10341800260716097F0A000000002507C40B2607A7
:103428009C09FB0A6E616E00696E66006F76660025
:103438000D0A0044485431310044485431320044A4
:1034480048543231004448543232004448543F0012
:1034580044617461486F72613A20257320253032C7
:10346800642F253032642F253032642025303264B1
:103478003A25303264004572726F204C6569747564
:1034880072612054656D7065726174757261210096
:1034980054656D70657261747572613A2000546587
:1034A8006D70657261747572612042616978613A04
:1034B8002025642E25303275202D204171756563D5
:1034C800696D656E746F20696E69636961646F0008
:1034D80054656D7065726174757261204E6F726D9E
:1034E800616C3A25642E253032750054656D70651F
:1034F800726174757261204E6F726D616C3A20252D
:10350800642E253032750054656D7065726174756E
:10351800726120416C74613A2025642E2530327521
:10352800202D20526573667269616D656E746F2017
:10353800696E69636961646F004572726F204C65DA
:10354800697475726120556D6964616465210055FF
:103558006D69646164653A2000556D6964616465EC
:103568002042616978613A2025642E253032752021
:103578002D204E6562756C697A6163616F20696E92
:1035880069636961646100556D6964616465204EB1
:103598006F726D616C3A2025642E253032750000FB
:00000001FF
